{
  "contractName": "Cache",
  "abi": [
    {
      "inputs": [
        {
          "name": "_coordinates",
          "type": "string"
        },
        {
          "name": "_name",
          "type": "string"
        }
      ],
      "payable": false,
      "stateMutability": "nonpayable",
      "type": "constructor"
    },
    {
      "constant": false,
      "inputs": [
        {
          "name": "_coordinates",
          "type": "string"
        },
        {
          "name": "_item",
          "type": "address"
        }
      ],
      "name": "addItem",
      "outputs": [],
      "payable": false,
      "stateMutability": "nonpayable",
      "type": "function"
    },
    {
      "constant": false,
      "inputs": [
        {
          "name": "_coordinates",
          "type": "string"
        },
        {
          "name": "_item",
          "type": "address"
        }
      ],
      "name": "removeItem",
      "outputs": [
        {
          "name": "",
          "type": "address[]"
        }
      ],
      "payable": false,
      "stateMutability": "nonpayable",
      "type": "function"
    },
    {
      "constant": true,
      "inputs": [
        {
          "name": "_coordinates",
          "type": "string"
        }
      ],
      "name": "getCacheName",
      "outputs": [
        {
          "name": "",
          "type": "string"
        }
      ],
      "payable": false,
      "stateMutability": "view",
      "type": "function"
    },
    {
      "constant": true,
      "inputs": [
        {
          "name": "_coordinates",
          "type": "string"
        }
      ],
      "name": "getCacheItems",
      "outputs": [
        {
          "name": "",
          "type": "address[]"
        }
      ],
      "payable": false,
      "stateMutability": "view",
      "type": "function"
    }
  ],
  "bytecode": "0x608060405234801561001057600080fd5b5060405162000cda38038062000cda8339810180604052604081101561003557600080fd5b81019080805164010000000081111561004d57600080fd5b8281019050602081018481111561006357600080fd5b815185600182028301116401000000008211171561008057600080fd5b5050929190602001805164010000000081111561009c57600080fd5b828101905060208101848111156100b257600080fd5b81518560018202830111640100000000821117156100cf57600080fd5b5050929190505050806000836040518082805190602001908083835b60208310151561011057805182526020820191506020810190506020830392506100eb565b6001836020036101000a03801982511681845116808217855250505050505090500191505090815260200160405180910390206000019080519060200190610159929190610161565b505050610206565b828054600181600116156101000203166002900490600052602060002090601f016020900481019282601f106101a257805160ff19168380011785556101d0565b828001600101855582156101d0579182015b828111156101cf5782518255916020019190600101906101b4565b5b5090506101dd91906101e1565b5090565b61020391905b808211156101ff5760008160009055506001016101e7565b5090565b90565b610ac480620002166000396000f3fe608060405260043610610062576000357c0100000000000000000000000000000000000000000000000000000000900463ffffffff1680635386c695146100675780635473bdac1461014f5780637fc4c46e1461026c5780639d46256d146103ad575b600080fd5b34801561007357600080fd5b5061014d6004803603604081101561008a57600080fd5b81019080803590602001906401000000008111156100a757600080fd5b8201836020820111156100b957600080fd5b803590602001918460018302840111640100000000831117156100db57600080fd5b91908080601f016020809104026020016040519081016040528093929190818152602001838380828437600081840152601f19601f820116905080830192505050505050509192919290803573ffffffffffffffffffffffffffffffffffffffff1690602001909291905050506104ea565b005b34801561015b57600080fd5b506102156004803603602081101561017257600080fd5b810190808035906020019064010000000081111561018f57600080fd5b8201836020820111156101a157600080fd5b803590602001918460018302840111640100000000831117156101c357600080fd5b91908080601f016020809104026020016040519081016040528093929190818152602001838380828437600081840152601f19601f8201169050808301925050505050505091929192905050506105c0565b6040518080602001828103825283818151815260200191508051906020019060200280838360005b8381101561025857808201518184015260208101905061023d565b505050509050019250505060405180910390f35b34801561027857600080fd5b506103326004803603602081101561028f57600080fd5b81019080803590602001906401000000008111156102ac57600080fd5b8201836020820111156102be57600080fd5b803590602001918460018302840111640100000000831117156102e057600080fd5b91908080601f016020809104026020016040519081016040528093929190818152602001838380828437600081840152601f19601f8201169050808301925050505050505091929192905050506106bc565b6040518080602001828103825283818151815260200191508051906020019080838360005b83811015610372578082015181840152602081019050610357565b50505050905090810190601f16801561039f5780820380516001836020036101000a031916815260200191505b509250505060405180910390f35b3480156103b957600080fd5b50610493600480360360408110156103d057600080fd5b81019080803590602001906401000000008111156103ed57600080fd5b8201836020820111156103ff57600080fd5b8035906020019184600183028401116401000000008311171561042157600080fd5b91908080601f016020809104026020016040519081016040528093929190818152602001838380828437600081840152601f19601f820116905080830192505050505050509192919290803573ffffffffffffffffffffffffffffffffffffffff1690602001909291905050506107cc565b6040518080602001828103825283818151815260200191508051906020019060200280838360005b838110156104d65780820151818401526020810190506104bb565b505050509050019250505060405180910390f35b6000826040518082805190602001908083835b60208310151561052257805182526020820191506020810190506020830392506104fd565b6001836020036101000a03801982511681845116808217855250505050505090500191505090815260200160405180910390206001018190806001815401808255809150509060018203906000526020600020016000909192909190916101000a81548173ffffffffffffffffffffffffffffffffffffffff021916908373ffffffffffffffffffffffffffffffffffffffff160217905550505050565b60606000826040518082805190602001908083835b6020831015156105fa57805182526020820191506020810190506020830392506105d5565b6001836020036101000a03801982511681845116808217855250505050505090500191505090815260200160405180910390206001018054806020026020016040519081016040528092919081815260200182805480156106b057602002820191906000526020600020905b8160009054906101000a900473ffffffffffffffffffffffffffffffffffffffff1673ffffffffffffffffffffffffffffffffffffffff1681526020019060010190808311610666575b50505050509050919050565b60606000826040518082805190602001908083835b6020831015156106f657805182526020820191506020810190506020830392506106d1565b6001836020036101000a03801982511681845116808217855250505050505090500191505090815260200160405180910390206000018054600181600116156101000203166002900480601f0160208091040260200160405190810160405280929190818152602001828054600181600116156101000203166002900480156107c05780601f10610795576101008083540402835291602001916107c0565b820191906000526020600020905b8154815290600101906020018083116107a357829003601f168201915b50505050509050919050565b6060600080846040518082805190602001908083835b60208310151561080757805182526020820191506020810190506020830392506107e2565b6001836020036101000a0380198251168184511680821785525050505050509050019150509081526020016040518091039020600101905060008090505b60018280549050038110156109b7578373ffffffffffffffffffffffffffffffffffffffff16828281548110151561087957fe5b9060005260206000200160009054906101000a900473ffffffffffffffffffffffffffffffffffffffff1673ffffffffffffffffffffffffffffffffffffffff1614156109aa578160018380549050038154811015156108d557fe5b9060005260206000200160009054906101000a900473ffffffffffffffffffffffffffffffffffffffff16828281548110151561090e57fe5b9060005260206000200160006101000a81548173ffffffffffffffffffffffffffffffffffffffff021916908373ffffffffffffffffffffffffffffffffffffffff160217905550816001820381548110151561096757fe5b9060005260206000200160006101000a81549073ffffffffffffffffffffffffffffffffffffffff0219169055818054809190600190036109a89190610a47565b505b8080600101915050610845565b5080805480602002602001604051908101604052809291908181526020018280548015610a3957602002820191906000526020600020905b8160009054906101000a900473ffffffffffffffffffffffffffffffffffffffff1673ffffffffffffffffffffffffffffffffffffffff16815260200190600101908083116109ef575b505050505091505092915050565b815481835581811115610a6e57818360005260206000209182019101610a6d9190610a73565b5b505050565b610a9591905b80821115610a91576000816000905550600101610a79565b5090565b9056fea165627a7a723058203d970d8cebef09b87536914fb5e59d884f1ad7a8a1fbdeb7c72151982a5779d80029",
  "source": "pragma solidity >0.4.99 <0.6.0;\n\ncontract Cache {\n      struct cache {\n            string name;\n            address[] items;\n      }\n\n      mapping (string => cache) caches;\n\n      constructor (string memory _coordinates, string memory _name) public {\n            caches[_coordinates].name = _name;\n      }\n\n      function addItem(string memory _coordinates, address _item) public {\n            caches[_coordinates].items.push(_item);\n      }\n\n      function removeItem(string memory _coordinates, address _item) public returns(address[] memory) {\n            address[] storage itemArr = caches[_coordinates].items;\n            for (uint i = 0; i < itemArr.length - 1; i++) {\n                  if (itemArr[i] == _item) {\n                        itemArr[i] = itemArr[itemArr.length-1];\n                        delete itemArr[i - 1];\n                        itemArr.length--;\n                  }\n            }\n            return itemArr;\n      } \n\n      function getCacheName(string memory _coordinates) public  view returns(string memory) {\n           return caches[_coordinates].name;\n      }\n\n      function getCacheItems(string memory _coordinates) public  view returns(address[] memory) {\n           return caches[_coordinates].items;\n      }\n\n}",
  "sourcePath": "/home/wayne/Desktop/blockchain/Semester2/Dapp2/geoCachingDapp/contracts/Cache.sol",
  "compiler": {
    "name": "solc",
    "version": "0.5.0+commit.1d4f565a.Emscripten.clang"
  },
  "schemaVersion": "3.0.6",
  "updatedAt": "2019-04-14T17:46:05.654Z",
  "devdoc": {
    "methods": {}
  },
  "userdoc": {
    "methods": {}
  }
}