{
  "contractName": "Cache",
  "abi": [
    {
      "inputs": [
        {
          "name": "_coordinates",
          "type": "string"
        },
        {
          "name": "_name",
          "type": "string"
        }
      ],
      "payable": false,
      "stateMutability": "nonpayable",
      "type": "constructor"
    },
    {
      "constant": false,
      "inputs": [
        {
          "name": "_coordinates",
          "type": "string"
        },
        {
          "name": "_item",
          "type": "address"
        }
      ],
      "name": "addItem",
      "outputs": [],
      "payable": false,
      "stateMutability": "nonpayable",
      "type": "function"
    },
    {
      "constant": true,
      "inputs": [
        {
          "name": "_coordinates",
          "type": "string"
        },
        {
          "name": "_item",
          "type": "address"
        }
      ],
      "name": "isCacheItem",
      "outputs": [
        {
          "name": "",
          "type": "bool"
        }
      ],
      "payable": false,
      "stateMutability": "view",
      "type": "function"
    },
    {
      "constant": false,
      "inputs": [
        {
          "name": "_coordinates",
          "type": "string"
        },
        {
          "name": "_item",
          "type": "address"
        }
      ],
      "name": "removeItem",
      "outputs": [
        {
          "name": "",
          "type": "string"
        }
      ],
      "payable": false,
      "stateMutability": "nonpayable",
      "type": "function"
    },
    {
      "constant": true,
      "inputs": [
        {
          "name": "_coordinates",
          "type": "string"
        }
      ],
      "name": "getCacheName",
      "outputs": [
        {
          "name": "",
          "type": "string"
        }
      ],
      "payable": false,
      "stateMutability": "view",
      "type": "function"
    },
    {
      "constant": true,
      "inputs": [
        {
          "name": "_coordinates",
          "type": "string"
        }
      ],
      "name": "getCacheItems",
      "outputs": [
        {
          "name": "",
          "type": "address[]"
        }
      ],
      "payable": false,
      "stateMutability": "view",
      "type": "function"
    }
  ],
  "bytecode": "0x60806040523480156200001157600080fd5b5060405162000ebe38038062000ebe833981018060405260408110156200003757600080fd5b8101908080516401000000008111156200005057600080fd5b828101905060208101848111156200006757600080fd5b81518560018202830111640100000000821117156200008557600080fd5b50509291906020018051640100000000811115620000a257600080fd5b82810190506020810184811115620000b957600080fd5b8151856001820283011164010000000082111715620000d757600080fd5b5050929190505050806000836040518082805190602001908083835b6020831015156200011a5780518252602082019150602081019050602083039250620000f3565b6001836020036101000a03801982511681845116808217855250505050505090500191505090815260200160405180910390206000019080519060200190620001659291906200016e565b5050506200021d565b828054600181600116156101000203166002900490600052602060002090601f016020900481019282601f10620001b157805160ff1916838001178555620001e2565b82800160010185558215620001e2579182015b82811115620001e1578251825591602001919060010190620001c4565b5b509050620001f19190620001f5565b5090565b6200021a91905b8082111562000216576000816000905550600101620001fc565b5090565b90565b610c91806200022d6000396000f3fe60806040526004361061006d576000357c0100000000000000000000000000000000000000000000000000000000900463ffffffff1680630d774fe0146100725780635386c695146101725780635473bdac1461025a5780637fc4c46e146103775780639d46256d146104b8575b600080fd5b34801561007e57600080fd5b506101586004803603604081101561009557600080fd5b81019080803590602001906401000000008111156100b257600080fd5b8201836020820111156100c457600080fd5b803590602001918460018302840111640100000000831117156100e657600080fd5b91908080601f016020809104026020016040519081016040528093929190818152602001838380828437600081840152601f19601f820116905080830192505050505050509192919290803573ffffffffffffffffffffffffffffffffffffffff1690602001909291905050506105a0565b604051808215151515815260200191505060405180910390f35b34801561017e57600080fd5b506102586004803603604081101561019557600080fd5b81019080803590602001906401000000008111156101b257600080fd5b8201836020820111156101c457600080fd5b803590602001918460018302840111640100000000831117156101e657600080fd5b91908080601f016020809104026020016040519081016040528093929190818152602001838380828437600081840152601f19601f820116905080830192505050505050509192919290803573ffffffffffffffffffffffffffffffffffffffff1690602001909291905050506107ac565b005b34801561026657600080fd5b506103206004803603602081101561027d57600080fd5b810190808035906020019064010000000081111561029a57600080fd5b8201836020820111156102ac57600080fd5b803590602001918460018302840111640100000000831117156102ce57600080fd5b91908080601f016020809104026020016040519081016040528093929190818152602001838380828437600081840152601f19601f820116905080830192505050505050509192919290505050610882565b6040518080602001828103825283818151815260200191508051906020019060200280838360005b83811015610363578082015181840152602081019050610348565b505050509050019250505060405180910390f35b34801561038357600080fd5b5061043d6004803603602081101561039a57600080fd5b81019080803590602001906401000000008111156103b757600080fd5b8201836020820111156103c957600080fd5b803590602001918460018302840111640100000000831117156103eb57600080fd5b91908080601f016020809104026020016040519081016040528093929190818152602001838380828437600081840152601f19601f82011690508083019250505050505050919291929050505061097e565b6040518080602001828103825283818151815260200191508051906020019080838360005b8381101561047d578082015181840152602081019050610462565b50505050905090810190601f1680156104aa5780820380516001836020036101000a031916815260200191505b509250505060405180910390f35b3480156104c457600080fd5b5061059e600480360360408110156104db57600080fd5b81019080803590602001906401000000008111156104f857600080fd5b82018360208201111561050a57600080fd5b8035906020019184600183028401116401000000008311171561052c57600080fd5b91908080601f016020809104026020016040519081016040528093929190818152602001838380828437600081840152601f19601f820116905080830192505050505050509192919290803573ffffffffffffffffffffffffffffffffffffffff169060200190929190505050610a8e565b005b6000806000846040518082805190602001908083835b6020831015156105db57805182526020820191506020810190506020830392506105b6565b6001836020036101000a038019825116818451168082178552505050505050905001915050908152602001604051809103902060010180549050141561062457600090506107a6565b8173ffffffffffffffffffffffffffffffffffffffff166000846040518082805190602001908083835b602083101515610673578051825260208201915060208101905060208303925061064e565b6001836020036101000a03801982511681845116808217855250505050505090500191505090815260200160405180910390206001016000856040518082805190602001908083835b6020831015156106e157805182526020820191506020810190506020830392506106bc565b6001836020036101000a038019825116818451168082178552505050505050905001915050908152602001604051809103902060020160008573ffffffffffffffffffffffffffffffffffffffff1673ffffffffffffffffffffffffffffffffffffffff1681526020019081526020016000205481548110151561076157fe5b9060005260206000200160009054906101000a900473ffffffffffffffffffffffffffffffffffffffff1673ffffffffffffffffffffffffffffffffffffffff161490505b92915050565b6000826040518082805190602001908083835b6020831015156107e457805182526020820191506020810190506020830392506107bf565b6001836020036101000a03801982511681845116808217855250505050505090500191505090815260200160405180910390206001018190806001815401808255809150509060018203906000526020600020016000909192909190916101000a81548173ffffffffffffffffffffffffffffffffffffffff021916908373ffffffffffffffffffffffffffffffffffffffff160217905550505050565b60606000826040518082805190602001908083835b6020831015156108bc5780518252602082019150602081019050602083039250610897565b6001836020036101000a038019825116818451168082178552505050505050905001915050908152602001604051809103902060010180548060200260200160405190810160405280929190818152602001828054801561097257602002820191906000526020600020905b8160009054906101000a900473ffffffffffffffffffffffffffffffffffffffff1673ffffffffffffffffffffffffffffffffffffffff1681526020019060010190808311610928575b50505050509050919050565b60606000826040518082805190602001908083835b6020831015156109b85780518252602082019150602081019050602083039250610993565b6001836020036101000a03801982511681845116808217855250505050505090500191505090815260200160405180910390206000018054600181600116156101000203166002900480601f016020809104026020016040519081016040528092919081815260200182805460018160011615610100020316600290048015610a825780601f10610a5757610100808354040283529160200191610a82565b820191906000526020600020905b815481529060010190602001808311610a6557829003601f168201915b50505050509050919050565b600080836040518082805190602001908083835b602083101515610ac75780518252602082019150602081019050602083039250610aa2565b6001836020036101000a03801982511681845116808217855250505050505090500191505090815260200160405180910390209050610b0683836105a0565b1515610b1157600080fd5b60008160020160008473ffffffffffffffffffffffffffffffffffffffff1673ffffffffffffffffffffffffffffffffffffffff168152602001908152602001600020549050816001016001836001018054905003815481101515610b7257fe5b9060005260206000200160009054906101000a900473ffffffffffffffffffffffffffffffffffffffff168260010182815481101515610bae57fe5b9060005260206000200160006101000a81548173ffffffffffffffffffffffffffffffffffffffff021916908373ffffffffffffffffffffffffffffffffffffffff16021790555081600101805480919060019003610c0d9190610c14565b5050505050565b815481835581811115610c3b57818360005260206000209182019101610c3a9190610c40565b5b505050565b610c6291905b80821115610c5e576000816000905550600101610c46565b5090565b9056fea165627a7a7230582050574890a5a45bc67a9b703f827ed8982dc99334347de9b041a48b622ee27bb70029",
  "source": "pragma solidity >0.4.99 <0.6.0;\n\ncontract Cache {\n      struct cache {\n            string name;\n            address[] items;\n            mapping(address => uint) itemPointers;\n      }\n\n      mapping (string => cache) caches;\n\n      constructor (string memory _coordinates, string memory _name) public {\n            caches[_coordinates].name = _name;\n      }\n\n      function addItem(string memory _coordinates, address _item) public {\n            caches[_coordinates].items.push(_item);\n      }\n\n      function isCacheItem(string memory _coordinates, address _item) public view returns(bool) {\n            if(caches[_coordinates].items.length == 0) return false;\n            return caches[_coordinates].items[caches[_coordinates].itemPointers[_item]] == _item;\n      }\n\n      function removeItem(string memory _coordinates, address _item) public {\n            cache storage c = caches[_coordinates];\n            require(isCacheItem(_coordinates, _item));\n            uint rowToDelete = c.itemPointers[_item];\n            c.items[rowToDelete] = c.items[c.items.length-1];\n            c.items.length--;\n      }\n\n      function getCacheName(string memory _coordinates) public  view returns(string memory) {\n           return caches[_coordinates].name;\n      }\n\n      function getCacheItems(string memory _coordinates) public  view returns(address[] memory) {\n           return caches[_coordinates].items;\n      }\n\n}",
  "sourcePath": "/home/wayne/Desktop/blockchain/Semester2/Dapp2/geoCachingDapp/contracts/Cache.sol",
  "compiler": {
    "name": "solc",
    "version": "0.5.0+commit.1d4f565a.Emscripten.clang"
  },
  "schemaVersion": "3.0.6",
  "updatedAt": "2019-04-17T21:23:23.804Z",
  "devdoc": {
    "methods": {}
  },
  "userdoc": {
    "methods": {}
  }
}