{
  "contractName": "Cache",
  "abi": [
    {
      "constant": true,
      "inputs": [],
      "name": "lng",
      "outputs": [
        {
          "name": "",
          "type": "string"
        }
      ],
      "payable": false,
      "stateMutability": "view",
      "type": "function"
    },
    {
      "constant": true,
      "inputs": [],
      "name": "name",
      "outputs": [
        {
          "name": "",
          "type": "string"
        }
      ],
      "payable": false,
      "stateMutability": "view",
      "type": "function"
    },
    {
      "constant": true,
      "inputs": [],
      "name": "lat",
      "outputs": [
        {
          "name": "",
          "type": "string"
        }
      ],
      "payable": false,
      "stateMutability": "view",
      "type": "function"
    },
    {
      "constant": true,
      "inputs": [],
      "name": "coordinates",
      "outputs": [
        {
          "name": "lat",
          "type": "string"
        },
        {
          "name": "lng",
          "type": "string"
        }
      ],
      "payable": false,
      "stateMutability": "view",
      "type": "function"
    },
    {
      "constant": true,
      "inputs": [
        {
          "name": "",
          "type": "uint256"
        }
      ],
      "name": "items",
      "outputs": [
        {
          "name": "",
          "type": "address"
        }
      ],
      "payable": false,
      "stateMutability": "view",
      "type": "function"
    },
    {
      "inputs": [
        {
          "name": "_lat",
          "type": "string"
        },
        {
          "name": "_lng",
          "type": "string"
        },
        {
          "name": "_name",
          "type": "string"
        }
      ],
      "payable": false,
      "stateMutability": "nonpayable",
      "type": "constructor"
    },
    {
      "constant": false,
      "inputs": [
        {
          "name": "_item",
          "type": "address"
        }
      ],
      "name": "addItem",
      "outputs": [],
      "payable": false,
      "stateMutability": "nonpayable",
      "type": "function"
    },
    {
      "constant": false,
      "inputs": [
        {
          "name": "_item",
          "type": "address"
        }
      ],
      "name": "removeItem",
      "outputs": [
        {
          "name": "",
          "type": "bool"
        }
      ],
      "payable": false,
      "stateMutability": "nonpayable",
      "type": "function"
    },
    {
      "constant": true,
      "inputs": [],
      "name": "getCacheName",
      "outputs": [
        {
          "name": "",
          "type": "string"
        }
      ],
      "payable": false,
      "stateMutability": "view",
      "type": "function"
    },
    {
      "constant": true,
      "inputs": [],
      "name": "listItems",
      "outputs": [
        {
          "name": "",
          "type": "address[]"
        }
      ],
      "payable": false,
      "stateMutability": "view",
      "type": "function"
    }
  ],
  "bytecode": "0x60806040523480156200001157600080fd5b5060405162000efe38038062000efe833981018060405260608110156200003757600080fd5b8101908080516401000000008111156200005057600080fd5b828101905060208101848111156200006757600080fd5b81518560018202830111640100000000821117156200008557600080fd5b50509291906020018051640100000000811115620000a257600080fd5b82810190506020810184811115620000b957600080fd5b8151856001820283011164010000000082111715620000d757600080fd5b50509291906020018051640100000000811115620000f457600080fd5b828101905060208101848111156200010b57600080fd5b81518560018202830111640100000000821117156200012957600080fd5b5050929190505050806000908051906020019062000149929190620001ab565b50604080519081016040528084815260200183815250600260008201518160000190805190602001906200017f92919062000232565b5060208201518160010190805190602001906200019e92919062000232565b50905050505050620002e1565b828054600181600116156101000203166002900490600052602060002090601f016020900481019282601f10620001ee57805160ff19168380011785556200021f565b828001600101855582156200021f579182015b828111156200021e57825182559160200191906001019062000201565b5b5090506200022e9190620002b9565b5090565b828054600181600116156101000203166002900490600052602060002090601f016020900481019282601f106200027557805160ff1916838001178555620002a6565b82800160010185558215620002a6579182015b82811115620002a557825182559160200191906001019062000288565b5b509050620002b59190620002b9565b5090565b620002de91905b80821115620002da576000816000905550600101620002c0565b5090565b90565b610c0d80620002f16000396000f3fe608060405260043610610099576000357c0100000000000000000000000000000000000000000000000000000000900463ffffffff168063015e72ec1461009e57806306fdde031461012e578063355eefc8146101be578063399fa8401461022a57806355d576cc146102935780637cf90fcc14610323578063893d2b9014610374578063a4b889b714610404578063bfb231d214610500575b600080fd5b3480156100aa57600080fd5b506100b361057b565b6040518080602001828103825283818151815260200191508051906020019080838360005b838110156100f35780820151818401526020810190506100d8565b50505050905090810190601f1680156101205780820380516001836020036101000a031916815260200191505b509250505060405180910390f35b34801561013a57600080fd5b50610143610619565b6040518080602001828103825283818151815260200191508051906020019080838360005b83811015610183578082015181840152602081019050610168565b50505050905090810190601f1680156101b05780820380516001836020036101000a031916815260200191505b509250505060405180910390f35b3480156101ca57600080fd5b506101d36106b7565b6040518080602001828103825283818151815260200191508051906020019060200280838360005b838110156102165780820151818401526020810190506101fb565b505050509050019250505060405180910390f35b34801561023657600080fd5b506102796004803603602081101561024d57600080fd5b81019080803573ffffffffffffffffffffffffffffffffffffffff16906020019092919050505061075d565b604051808215151515815260200191505060405180910390f35b34801561029f57600080fd5b506102a8610867565b6040518080602001828103825283818151815260200191508051906020019080838360005b838110156102e85780820151818401526020810190506102cd565b50505050905090810190601f1680156103155780820380516001836020036101000a031916815260200191505b509250505060405180910390f35b34801561032f57600080fd5b506103726004803603602081101561034657600080fd5b81019080803573ffffffffffffffffffffffffffffffffffffffff169060200190929190505050610905565b005b34801561038057600080fd5b5061038961096e565b6040518080602001828103825283818151815260200191508051906020019080838360005b838110156103c95780820151818401526020810190506103ae565b50505050905090810190601f1680156103f65780820380516001836020036101000a031916815260200191505b509250505060405180910390f35b34801561041057600080fd5b50610419610a10565b604051808060200180602001838103835285818151815260200191508051906020019080838360005b8381101561045d578082015181840152602081019050610442565b50505050905090810190601f16801561048a5780820380516001836020036101000a031916815260200191505b50838103825284818151815260200191508051906020019080838360005b838110156104c35780820151818401526020810190506104a8565b50505050905090810190601f1680156104f05780820380516001836020036101000a031916815260200191505b5094505050505060405180910390f35b34801561050c57600080fd5b506105396004803603602081101561052357600080fd5b8101908080359060200190929190505050610b52565b604051808273ffffffffffffffffffffffffffffffffffffffff1673ffffffffffffffffffffffffffffffffffffffff16815260200191505060405180910390f35b60058054600181600116156101000203166002900480601f0160208091040260200160405190810160405280929190818152602001828054600181600116156101000203166002900480156106115780601f106105e657610100808354040283529160200191610611565b820191906000526020600020905b8154815290600101906020018083116105f457829003601f168201915b505050505081565b60008054600181600116156101000203166002900480601f0160208091040260200160405190810160405280929190818152602001828054600181600116156101000203166002900480156106af5780601f10610684576101008083540402835291602001916106af565b820191906000526020600020905b81548152906001019060200180831161069257829003601f168201915b505050505081565b60608060008090506103e8811015610757576001818154811015156106d857fe5b9060005260206000200160009054906101000a900473ffffffffffffffffffffffffffffffffffffffff16828281518110151561071157fe5b9060200190602002019073ffffffffffffffffffffffffffffffffffffffff16908173ffffffffffffffffffffffffffffffffffffffff1681525050819250505061075a565b50505b90565b600080600660008473ffffffffffffffffffffffffffffffffffffffff1673ffffffffffffffffffffffffffffffffffffffff168152602001908152602001600020549050600180805490501115610847576001808080549050038154811015156107c457fe5b9060005260206000200160009054906101000a900473ffffffffffffffffffffffffffffffffffffffff166001828154811015156107fe57fe5b9060005260206000200160006101000a81548173ffffffffffffffffffffffffffffffffffffffff021916908373ffffffffffffffffffffffffffffffffffffffff1602179055505b600180548091906001900361085c9190610b90565b506001915050919050565b60048054600181600116156101000203166002900480601f0160208091040260200160405190810160405280929190818152602001828054600181600116156101000203166002900480156108fd5780601f106108d2576101008083540402835291602001916108fd565b820191906000526020600020905b8154815290600101906020018083116108e057829003601f168201915b505050505081565b60018190806001815401808255809150509060018203906000526020600020016000909192909190916101000a81548173ffffffffffffffffffffffffffffffffffffffff021916908373ffffffffffffffffffffffffffffffffffffffff1602179055505050565b606060008054600181600116156101000203166002900480601f016020809104026020016040519081016040528092919081815260200182805460018160011615610100020316600290048015610a065780601f106109db57610100808354040283529160200191610a06565b820191906000526020600020905b8154815290600101906020018083116109e957829003601f168201915b5050505050905090565b6002806000018054600181600116156101000203166002900480601f016020809104026020016040519081016040528092919081815260200182805460018160011615610100020316600290048015610aaa5780601f10610a7f57610100808354040283529160200191610aaa565b820191906000526020600020905b815481529060010190602001808311610a8d57829003601f168201915b505050505090806001018054600181600116156101000203166002900480601f016020809104026020016040519081016040528092919081815260200182805460018160011615610100020316600290048015610b485780601f10610b1d57610100808354040283529160200191610b48565b820191906000526020600020905b815481529060010190602001808311610b2b57829003601f168201915b5050505050905082565b600181815481101515610b6157fe5b906000526020600020016000915054906101000a900473ffffffffffffffffffffffffffffffffffffffff1681565b815481835581811115610bb757818360005260206000209182019101610bb69190610bbc565b5b505050565b610bde91905b80821115610bda576000816000905550600101610bc2565b5090565b9056fea165627a7a72305820e9c141661b2be19064e8b591b6e18ba49a1c424db5006cad3c081b8bc6a566f60029",
  "source": "pragma solidity >0.4.99 <0.6.0;\n\ncontract Cache {\n      \n            string public name;\n            address[] public items;\n            struct _coordinates {\n                  string lat;\n                  string lng;\n            }\n            _coordinates public coordinates;\n            string public lat;\n            string public lng;\n            mapping(address => uint) indexOfItem;\n\n        \n\n      constructor (string memory _lat, string memory _lng , string memory _name) public {\n            name = _name;\n            coordinates = _coordinates(_lat, _lng);\n           \n      }\n\n      function addItem(address _item) public {\n            items.push(_item);\n      }\n\n    //   function isItemInCache(address _item) public view returns(bool) {\n    //         if(caches[_coordinates].items.length == 0) return false;\n    //         return caches[_coordinates].items[caches[_coordinates].itemPointers[_item]] == _item;\n    //   }\n\n   function removeItem(address _item) public returns(bool){\n            uint index = indexOfItem[_item];\n            if (items.length > 1) {\n                  items[index] = items[items.length-1];\n            }\n            items.length--;\n            return true;\n      } \n\n      function getCacheName() public  view returns(string memory) {\n           return name;\n      }\n\n      function listItems() public view returns(address[] memory) {\n           address[] memory resAddr;\n            for (uint j = 0; j<1000; j++) {\n                resAddr[j] = items[j];\n            return resAddr;\n        }\n      }\n\n}",
  "sourcePath": "/home/matt/myproject/geoCachingDapp/contracts/Cache.sol",
  "compiler": {
    "name": "solc",
    "version": "0.5.0+commit.1d4f565a.Emscripten.clang"
  },
  "schemaVersion": "3.0.5",
  "updatedAt": "2019-04-26T17:43:04.131Z",
  "devdoc": {
    "methods": {}
  },
  "userdoc": {
    "methods": {}
  }
}