{
  "contractName": "Cache",
  "abi": [
    {
      "constant": false,
      "inputs": [
        {
          "name": "_coordinates",
          "type": "bytes"
        },
        {
          "name": "_name",
          "type": "bytes"
        }
      ],
      "name": "createCache",
      "outputs": [],
      "payable": false,
      "stateMutability": "nonpayable",
      "type": "function"
    },
    {
      "constant": false,
      "inputs": [
        {
          "name": "_coordinates",
          "type": "bytes"
        },
        {
          "name": "_item",
          "type": "address"
        }
      ],
      "name": "addItem",
      "outputs": [],
      "payable": false,
      "stateMutability": "nonpayable",
      "type": "function"
    },
    {
      "constant": false,
      "inputs": [
        {
          "name": "_coordinates",
          "type": "bytes"
        },
        {
          "name": "_item",
          "type": "address"
        }
      ],
      "name": "removeItem",
      "outputs": [
        {
          "name": "",
          "type": "address[]"
        }
      ],
      "payable": false,
      "stateMutability": "nonpayable",
      "type": "function"
    },
    {
      "constant": true,
      "inputs": [
        {
          "name": "_coordinates",
          "type": "bytes"
        }
      ],
      "name": "getCacheName",
      "outputs": [
        {
          "name": "",
          "type": "bytes"
        }
      ],
      "payable": false,
      "stateMutability": "view",
      "type": "function"
    },
    {
      "constant": true,
      "inputs": [
        {
          "name": "_coordinates",
          "type": "bytes"
        }
      ],
      "name": "getCacheItems",
      "outputs": [
        {
          "name": "",
          "type": "address[]"
        }
      ],
      "payable": false,
      "stateMutability": "view",
      "type": "function"
    }
  ],
  "bytecode": "0x608060405234801561001057600080fd5b50610d35806100206000396000f3fe60806040526004361061006d576000357c0100000000000000000000000000000000000000000000000000000000900463ffffffff168063643d507414610072578063b72cb36d146101b3578063bd3a90f814610312578063d4174aa7146103fa578063f2f5454c14610537575b600080fd5b34801561007e57600080fd5b506101386004803603602081101561009557600080fd5b81019080803590602001906401000000008111156100b257600080fd5b8201836020820111156100c457600080fd5b803590602001918460018302840111640100000000831117156100e657600080fd5b91908080601f016020809104026020016040519081016040528093929190818152602001838380828437600081840152601f19601f820116905080830192505050505050509192919290505050610654565b6040518080602001828103825283818151815260200191508051906020019080838360005b8381101561017857808201518184015260208101905061015d565b50505050905090810190601f1680156101a55780820380516001836020036101000a031916815260200191505b509250505060405180910390f35b3480156101bf57600080fd5b50610310600480360360408110156101d657600080fd5b81019080803590602001906401000000008111156101f357600080fd5b82018360208201111561020557600080fd5b8035906020019184600183028401116401000000008311171561022757600080fd5b91908080601f016020809104026020016040519081016040528093929190818152602001838380828437600081840152601f19601f8201169050808301925050505050505091929192908035906020019064010000000081111561028a57600080fd5b82018360208201111561029c57600080fd5b803590602001918460018302840111640100000000831117156102be57600080fd5b91908080601f016020809104026020016040519081016040528093929190818152602001838380828437600081840152601f19601f820116905080830192505050505050509192919290505050610764565b005b34801561031e57600080fd5b506103f86004803603604081101561033557600080fd5b810190808035906020019064010000000081111561035257600080fd5b82018360208201111561036457600080fd5b8035906020019184600183028401116401000000008311171561038657600080fd5b91908080601f016020809104026020016040519081016040528093929190818152602001838380828437600081840152601f19601f820116905080830192505050505050509192919290803573ffffffffffffffffffffffffffffffffffffffff1690602001909291905050506107eb565b005b34801561040657600080fd5b506104e06004803603604081101561041d57600080fd5b810190808035906020019064010000000081111561043a57600080fd5b82018360208201111561044c57600080fd5b8035906020019184600183028401116401000000008311171561046e57600080fd5b91908080601f016020809104026020016040519081016040528093929190818152602001838380828437600081840152601f19601f820116905080830192505050505050509192919290803573ffffffffffffffffffffffffffffffffffffffff1690602001909291905050506108c1565b6040518080602001828103825283818151815260200191508051906020019060200280838360005b83811015610523578082015181840152602081019050610508565b505050509050019250505060405180910390f35b34801561054357600080fd5b506105fd6004803603602081101561055a57600080fd5b810190808035906020019064010000000081111561057757600080fd5b82018360208201111561058957600080fd5b803590602001918460018302840111640100000000831117156105ab57600080fd5b91908080601f016020809104026020016040519081016040528093929190818152602001838380828437600081840152601f19601f820116905080830192505050505050509192919290505050610b3c565b6040518080602001828103825283818151815260200191508051906020019060200280838360005b83811015610640578082015181840152602081019050610625565b505050509050019250505060405180910390f35b60606000826040518082805190602001908083835b60208310151561068e5780518252602082019150602081019050602083039250610669565b6001836020036101000a03801982511681845116808217855250505050505090500191505090815260200160405180910390206000018054600181600116156101000203166002900480601f0160208091040260200160405190810160405280929190818152602001828054600181600116156101000203166002900480156107585780601f1061072d57610100808354040283529160200191610758565b820191906000526020600020905b81548152906001019060200180831161073b57829003601f168201915b50505050509050919050565b806000836040518082805190602001908083835b60208310151561079d5780518252602082019150602081019050602083039250610778565b6001836020036101000a038019825116818451168082178552505050505050905001915050908152602001604051809103902060000190805190602001906107e6929190610c38565b505050565b6000826040518082805190602001908083835b60208310151561082357805182526020820191506020810190506020830392506107fe565b6001836020036101000a03801982511681845116808217855250505050505090500191505090815260200160405180910390206001018190806001815401808255809150509060018203906000526020600020016000909192909190916101000a81548173ffffffffffffffffffffffffffffffffffffffff021916908373ffffffffffffffffffffffffffffffffffffffff160217905550505050565b6060600080846040518082805190602001908083835b6020831015156108fc57805182526020820191506020810190506020830392506108d7565b6001836020036101000a0380198251168184511680821785525050505050509050019150509081526020016040518091039020600101905060008090505b6001828054905003811015610aac578373ffffffffffffffffffffffffffffffffffffffff16828281548110151561096e57fe5b9060005260206000200160009054906101000a900473ffffffffffffffffffffffffffffffffffffffff1673ffffffffffffffffffffffffffffffffffffffff161415610a9f578160018380549050038154811015156109ca57fe5b9060005260206000200160009054906101000a900473ffffffffffffffffffffffffffffffffffffffff168282815481101515610a0357fe5b9060005260206000200160006101000a81548173ffffffffffffffffffffffffffffffffffffffff021916908373ffffffffffffffffffffffffffffffffffffffff1602179055508160018203815481101515610a5c57fe5b9060005260206000200160006101000a81549073ffffffffffffffffffffffffffffffffffffffff021916905581805480919060019003610a9d9190610cb8565b505b808060010191505061093a565b5080805480602002602001604051908101604052809291908181526020018280548015610b2e57602002820191906000526020600020905b8160009054906101000a900473ffffffffffffffffffffffffffffffffffffffff1673ffffffffffffffffffffffffffffffffffffffff1681526020019060010190808311610ae4575b505050505091505092915050565b60606000826040518082805190602001908083835b602083101515610b765780518252602082019150602081019050602083039250610b51565b6001836020036101000a0380198251168184511680821785525050505050509050019150509081526020016040518091039020600101805480602002602001604051908101604052809291908181526020018280548015610c2c57602002820191906000526020600020905b8160009054906101000a900473ffffffffffffffffffffffffffffffffffffffff1673ffffffffffffffffffffffffffffffffffffffff1681526020019060010190808311610be2575b50505050509050919050565b828054600181600116156101000203166002900490600052602060002090601f016020900481019282601f10610c7957805160ff1916838001178555610ca7565b82800160010185558215610ca7579182015b82811115610ca6578251825591602001919060010190610c8b565b5b509050610cb49190610ce4565b5090565b815481835581811115610cdf57818360005260206000209182019101610cde9190610ce4565b5b505050565b610d0691905b80821115610d02576000816000905550600101610cea565b5090565b9056fea165627a7a7230582057af442ed9894a5f81e65e6f51bcf32c9092a82aa9cb01bdedaa46cef47f81f80029",
  "source": "pragma solidity >0.4.99 <0.6.0;\n\ncontract Cache {\n      struct cache {\n            bytes name;\n            address[] items;\n      }\n\n      mapping (bytes => cache) caches;\n\n      function createCache(bytes memory _coordinates, bytes memory _name) public {\n            caches[_coordinates].name = _name;\n      }\n\n      function addItem(bytes memory _coordinates, address _item) public {\n            caches[_coordinates].items.push(_item);\n      }\n\n      function removeItem(bytes memory _coordinates, address _item) public returns(address[] memory) {\n            address[] storage itemArr = caches[_coordinates].items;\n            for (uint i = 0; i < itemArr.length - 1; i++) {\n                  if (itemArr[i] == _item) {\n                        itemArr[i] = itemArr[itemArr.length-1];\n                        delete itemArr[i - 1];\n                        itemArr.length--;\n                  }\n            }\n            return itemArr;\n      } \n\n      function getCacheName(bytes memory _coordinates) public  view returns(bytes memory) {\n           return caches[_coordinates].name;\n      }\n\n      function getCacheItems(bytes memory _coordinates) public  view returns(address[] memory) {\n           return caches[_coordinates].items;\n      }\n\n}",
  "sourcePath": "/home/wayne/Desktop/blockchain/Semester2/Dapp2/geoCachingDapp/contracts/Cache.sol",
  "compiler": {
    "name": "solc",
    "version": "0.5.0+commit.1d4f565a.Emscripten.clang"
  },
  "schemaVersion": "3.0.6",
  "updatedAt": "2019-04-13T23:54:27.583Z",
  "devdoc": {
    "methods": {}
  },
  "userdoc": {
    "methods": {}
  }
}