{
  "contractName": "Cache",
  "abi": [
    {
      "constant": true,
      "inputs": [],
      "name": "name",
      "outputs": [
        {
          "name": "",
          "type": "string"
        }
      ],
      "payable": false,
      "stateMutability": "view",
      "type": "function"
    },
    {
      "constant": true,
      "inputs": [],
      "name": "long",
      "outputs": [
        {
          "name": "",
          "type": "string"
        }
      ],
      "payable": false,
      "stateMutability": "view",
      "type": "function"
    },
    {
      "constant": true,
      "inputs": [],
      "name": "lat",
      "outputs": [
        {
          "name": "",
          "type": "string"
        }
      ],
      "payable": false,
      "stateMutability": "view",
      "type": "function"
    },
    {
      "constant": true,
      "inputs": [
        {
          "name": "",
          "type": "uint256"
        }
      ],
      "name": "items",
      "outputs": [
        {
          "name": "",
          "type": "address"
        }
      ],
      "payable": false,
      "stateMutability": "view",
      "type": "function"
    },
    {
      "inputs": [
        {
          "name": "_lat",
          "type": "string"
        },
        {
          "name": "_long",
          "type": "string"
        },
        {
          "name": "_name",
          "type": "string"
        }
      ],
      "payable": false,
      "stateMutability": "nonpayable",
      "type": "constructor"
    },
    {
      "constant": false,
      "inputs": [
        {
          "name": "_item",
          "type": "address"
        }
      ],
      "name": "addItem",
      "outputs": [],
      "payable": false,
      "stateMutability": "nonpayable",
      "type": "function"
    },
    {
      "constant": false,
      "inputs": [
        {
          "name": "_item",
          "type": "address"
        }
      ],
      "name": "removeItem",
      "outputs": [
        {
          "name": "",
          "type": "bool"
        }
      ],
      "payable": false,
      "stateMutability": "nonpayable",
      "type": "function"
    },
    {
      "constant": true,
      "inputs": [],
      "name": "getCacheName",
      "outputs": [
        {
          "name": "",
          "type": "string"
        }
      ],
      "payable": false,
      "stateMutability": "view",
      "type": "function"
    },
    {
      "constant": true,
      "inputs": [],
      "name": "listItems",
      "outputs": [
        {
          "name": "",
          "type": "address[]"
        }
      ],
      "payable": false,
      "stateMutability": "view",
      "type": "function"
    }
  ],
  "bytecode": "0x60806040523480156200001157600080fd5b5060405162000c0838038062000c08833981018060405260608110156200003757600080fd5b8101908080516401000000008111156200005057600080fd5b828101905060208101848111156200006757600080fd5b81518560018202830111640100000000821117156200008557600080fd5b50509291906020018051640100000000811115620000a257600080fd5b82810190506020810184811115620000b957600080fd5b8151856001820283011164010000000082111715620000d757600080fd5b50509291906020018051640100000000811115620000f457600080fd5b828101905060208101848111156200010b57600080fd5b81518560018202830111640100000000821117156200012957600080fd5b505092919050505080600090805190602001906200014992919062000185565b5082600290805190602001906200016292919062000185565b5081600390805190602001906200017b92919062000185565b5050505062000234565b828054600181600116156101000203166002900490600052602060002090601f016020900481019282601f10620001c857805160ff1916838001178555620001f9565b82800160010185558215620001f9579182015b82811115620001f8578251825591602001919060010190620001db565b5b5090506200020891906200020c565b5090565b6200023191905b808211156200022d57600081600090555060010162000213565b5090565b90565b6109c480620002446000396000f3fe60806040526004361061008e576000357c0100000000000000000000000000000000000000000000000000000000900463ffffffff16806306fdde031461009357806307bfce3714610123578063355eefc8146101b3578063399fa8401461021f57806355d576cc146102885780637cf90fcc14610318578063893d2b9014610369578063bfb231d2146103f9575b600080fd5b34801561009f57600080fd5b506100a8610474565b6040518080602001828103825283818151815260200191508051906020019080838360005b838110156100e85780820151818401526020810190506100cd565b50505050905090810190601f1680156101155780820380516001836020036101000a031916815260200191505b509250505060405180910390f35b34801561012f57600080fd5b50610138610512565b6040518080602001828103825283818151815260200191508051906020019080838360005b8381101561017857808201518184015260208101905061015d565b50505050905090810190601f1680156101a55780820380516001836020036101000a031916815260200191505b509250505060405180910390f35b3480156101bf57600080fd5b506101c86105b0565b6040518080602001828103825283818151815260200191508051906020019060200280838360005b8381101561020b5780820151818401526020810190506101f0565b505050509050019250505060405180910390f35b34801561022b57600080fd5b5061026e6004803603602081101561024257600080fd5b81019080803573ffffffffffffffffffffffffffffffffffffffff169060200190929190505050610656565b604051808215151515815260200191505060405180910390f35b34801561029457600080fd5b5061029d610760565b6040518080602001828103825283818151815260200191508051906020019080838360005b838110156102dd5780820151818401526020810190506102c2565b50505050905090810190601f16801561030a5780820380516001836020036101000a031916815260200191505b509250505060405180910390f35b34801561032457600080fd5b506103676004803603602081101561033b57600080fd5b81019080803573ffffffffffffffffffffffffffffffffffffffff1690602001909291905050506107fe565b005b34801561037557600080fd5b5061037e610867565b6040518080602001828103825283818151815260200191508051906020019080838360005b838110156103be5780820151818401526020810190506103a3565b50505050905090810190601f1680156103eb5780820380516001836020036101000a031916815260200191505b509250505060405180910390f35b34801561040557600080fd5b506104326004803603602081101561041c57600080fd5b8101908080359060200190929190505050610909565b604051808273ffffffffffffffffffffffffffffffffffffffff1673ffffffffffffffffffffffffffffffffffffffff16815260200191505060405180910390f35b60008054600181600116156101000203166002900480601f01602080910402602001604051908101604052809291908181526020018280546001816001161561010002031660029004801561050a5780601f106104df5761010080835404028352916020019161050a565b820191906000526020600020905b8154815290600101906020018083116104ed57829003601f168201915b505050505081565b60038054600181600116156101000203166002900480601f0160208091040260200160405190810160405280929190818152602001828054600181600116156101000203166002900480156105a85780601f1061057d576101008083540402835291602001916105a8565b820191906000526020600020905b81548152906001019060200180831161058b57829003601f168201915b505050505081565b60608060008090506103e8811015610650576001818154811015156105d157fe5b9060005260206000200160009054906101000a900473ffffffffffffffffffffffffffffffffffffffff16828281518110151561060a57fe5b9060200190602002019073ffffffffffffffffffffffffffffffffffffffff16908173ffffffffffffffffffffffffffffffffffffffff16815250508192505050610653565b50505b90565b600080600460008473ffffffffffffffffffffffffffffffffffffffff1673ffffffffffffffffffffffffffffffffffffffff168152602001908152602001600020549050600180805490501115610740576001808080549050038154811015156106bd57fe5b9060005260206000200160009054906101000a900473ffffffffffffffffffffffffffffffffffffffff166001828154811015156106f757fe5b9060005260206000200160006101000a81548173ffffffffffffffffffffffffffffffffffffffff021916908373ffffffffffffffffffffffffffffffffffffffff1602179055505b60018054809190600190036107559190610947565b506001915050919050565b60028054600181600116156101000203166002900480601f0160208091040260200160405190810160405280929190818152602001828054600181600116156101000203166002900480156107f65780601f106107cb576101008083540402835291602001916107f6565b820191906000526020600020905b8154815290600101906020018083116107d957829003601f168201915b505050505081565b60018190806001815401808255809150509060018203906000526020600020016000909192909190916101000a81548173ffffffffffffffffffffffffffffffffffffffff021916908373ffffffffffffffffffffffffffffffffffffffff1602179055505050565b606060008054600181600116156101000203166002900480601f0160208091040260200160405190810160405280929190818152602001828054600181600116156101000203166002900480156108ff5780601f106108d4576101008083540402835291602001916108ff565b820191906000526020600020905b8154815290600101906020018083116108e257829003601f168201915b5050505050905090565b60018181548110151561091857fe5b906000526020600020016000915054906101000a900473ffffffffffffffffffffffffffffffffffffffff1681565b81548183558181111561096e5781836000526020600020918201910161096d9190610973565b5b505050565b61099591905b80821115610991576000816000905550600101610979565b5090565b9056fea165627a7a72305820a7dbdf9a5ee61a1923a6fdc9709155dcee4aa68a43abcdd34807430e4a52e23e0029",
  "source": "pragma solidity >0.4.99 <0.6.0;\n\ncontract Cache {\n      \n            string public name;\n            address[] public items;\n            // struct _coordinates {\n            //       string lat;\n            //       string long;\n            // }\n            // _coordinates public coordinates;\n            string public lat;\n            string public long;\n            mapping(address => uint) indexOfItem;\n\n        \n\n      constructor (string memory _lat, string memory _long , string memory _name) public {\n            name = _name;\n            //coordinates = _coordinates(_lat, _long);\n            lat = _lat;\n            long = _long;\n      }\n\n      function addItem(address _item) public {\n            items.push(_item);\n      }\n\n    //   function isItemInCache(address _item) public view returns(bool) {\n    //         if(caches[_coordinates].items.length == 0) return false;\n    //         return caches[_coordinates].items[caches[_coordinates].itemPointers[_item]] == _item;\n    //   }\n\n   function removeItem(address _item) public returns(bool){\n            uint index = indexOfItem[_item];\n            if (items.length > 1) {\n                  items[index] = items[items.length-1];\n            }\n            items.length--;\n            return true;\n      } \n\n      function getCacheName() public  view returns(string memory) {\n           return name;\n      }\n\n      function listItems() public view returns(address[] memory) {\n           address[] memory resAddr;\n            for (uint j = 0; j<1000; j++) {\n                resAddr[j] = items[j];\n            return resAddr;\n        }\n      }\n\n}",
  "sourcePath": "/home/matt/myproject/geoCachingDapp/contracts/Cache.sol",
  "compiler": {
    "name": "solc",
    "version": "0.5.0+commit.1d4f565a.Emscripten.clang"
  },
  "schemaVersion": "3.0.5",
  "updatedAt": "2019-04-25T20:50:45.944Z",
  "devdoc": {
    "methods": {}
  },
  "userdoc": {
    "methods": {}
  }
}