{
  "contractName": "Cache",
  "abi": [
    {
      "inputs": [
        {
          "name": "_coordinates",
          "type": "string"
        },
        {
          "name": "_name",
          "type": "string"
        }
      ],
      "payable": false,
      "stateMutability": "nonpayable",
      "type": "constructor"
    },
    {
      "constant": false,
      "inputs": [
        {
          "name": "_coordinates",
          "type": "string"
        },
        {
          "name": "_item",
          "type": "address"
        }
      ],
      "name": "addItem",
      "outputs": [],
      "payable": false,
      "stateMutability": "nonpayable",
      "type": "function"
    },
    {
      "constant": false,
      "inputs": [
        {
          "name": "_coordinates",
          "type": "string"
        },
        {
          "name": "_item",
          "type": "address"
        }
      ],
      "name": "removeItem",
      "outputs": [],
      "payable": false,
      "stateMutability": "nonpayable",
      "type": "function"
    },
    {
      "constant": true,
      "inputs": [
        {
          "name": "_coordinates",
          "type": "string"
        }
      ],
      "name": "getCacheName",
      "outputs": [
        {
          "name": "",
          "type": "string"
        }
      ],
      "payable": false,
      "stateMutability": "view",
      "type": "function"
    },
    {
      "constant": true,
      "inputs": [
        {
          "name": "_coordinates",
          "type": "string"
        }
      ],
      "name": "getCacheItems",
      "outputs": [
        {
          "name": "",
          "type": "address[]"
        }
      ],
      "payable": false,
      "stateMutability": "view",
      "type": "function"
    }
  ],
  "bytecode": "0x608060405234801561001057600080fd5b50604051610bf6380380610bf68339810180604052604081101561003357600080fd5b81019080805164010000000081111561004b57600080fd5b8281019050602081018481111561006157600080fd5b815185600182028301116401000000008211171561007e57600080fd5b5050929190602001805164010000000081111561009a57600080fd5b828101905060208101848111156100b057600080fd5b81518560018202830111640100000000821117156100cd57600080fd5b5050929190505050806000836040518082805190602001908083835b60208310151561010e57805182526020820191506020810190506020830392506100e9565b6001836020036101000a0380198251168184511680821785525050505050509050019150509081526020016040518091039020600001908051906020019061015792919061015f565b505050610204565b828054600181600116156101000203166002900490600052602060002090601f016020900481019282601f106101a057805160ff19168380011785556101ce565b828001600101855582156101ce579182015b828111156101cd5782518255916020019190600101906101b2565b5b5090506101db91906101df565b5090565b61020191905b808211156101fd5760008160009055506001016101e5565b5090565b90565b6109e3806102136000396000f3fe608060405260043610610062576000357c0100000000000000000000000000000000000000000000000000000000900463ffffffff1680635386c695146100675780635473bdac1461014f5780637fc4c46e1461026c5780639d46256d146103ad575b600080fd5b34801561007357600080fd5b5061014d6004803603604081101561008a57600080fd5b81019080803590602001906401000000008111156100a757600080fd5b8201836020820111156100b957600080fd5b803590602001918460018302840111640100000000831117156100db57600080fd5b91908080601f016020809104026020016040519081016040528093929190818152602001838380828437600081840152601f19601f820116905080830192505050505050509192919290803573ffffffffffffffffffffffffffffffffffffffff169060200190929190505050610495565b005b34801561015b57600080fd5b506102156004803603602081101561017257600080fd5b810190808035906020019064010000000081111561018f57600080fd5b8201836020820111156101a157600080fd5b803590602001918460018302840111640100000000831117156101c357600080fd5b91908080601f016020809104026020016040519081016040528093929190818152602001838380828437600081840152601f19601f82011690508083019250505050505050919291929050505061056b565b6040518080602001828103825283818151815260200191508051906020019060200280838360005b8381101561025857808201518184015260208101905061023d565b505050509050019250505060405180910390f35b34801561027857600080fd5b506103326004803603602081101561028f57600080fd5b81019080803590602001906401000000008111156102ac57600080fd5b8201836020820111156102be57600080fd5b803590602001918460018302840111640100000000831117156102e057600080fd5b91908080601f016020809104026020016040519081016040528093929190818152602001838380828437600081840152601f19601f820116905080830192505050505050509192919290505050610667565b6040518080602001828103825283818151815260200191508051906020019080838360005b83811015610372578082015181840152602081019050610357565b50505050905090810190601f16801561039f5780820380516001836020036101000a031916815260200191505b509250505060405180910390f35b3480156103b957600080fd5b50610493600480360360408110156103d057600080fd5b81019080803590602001906401000000008111156103ed57600080fd5b8201836020820111156103ff57600080fd5b8035906020019184600183028401116401000000008311171561042157600080fd5b91908080601f016020809104026020016040519081016040528093929190818152602001838380828437600081840152601f19601f820116905080830192505050505050509192919290803573ffffffffffffffffffffffffffffffffffffffff169060200190929190505050610777565b005b6000826040518082805190602001908083835b6020831015156104cd57805182526020820191506020810190506020830392506104a8565b6001836020036101000a03801982511681845116808217855250505050505090500191505090815260200160405180910390206001018190806001815401808255809150509060018203906000526020600020016000909192909190916101000a81548173ffffffffffffffffffffffffffffffffffffffff021916908373ffffffffffffffffffffffffffffffffffffffff160217905550505050565b60606000826040518082805190602001908083835b6020831015156105a55780518252602082019150602081019050602083039250610580565b6001836020036101000a038019825116818451168082178552505050505050905001915050908152602001604051809103902060010180548060200260200160405190810160405280929190818152602001828054801561065b57602002820191906000526020600020905b8160009054906101000a900473ffffffffffffffffffffffffffffffffffffffff1673ffffffffffffffffffffffffffffffffffffffff1681526020019060010190808311610611575b50505050509050919050565b60606000826040518082805190602001908083835b6020831015156106a1578051825260208201915060208101905060208303925061067c565b6001836020036101000a03801982511681845116808217855250505050505090500191505090815260200160405180910390206000018054600181600116156101000203166002900480601f01602080910402602001604051908101604052809291908181526020018280546001816001161561010002031660029004801561076b5780601f106107405761010080835404028352916020019161076b565b820191906000526020600020905b81548152906001019060200180831161074e57829003601f168201915b50505050509050919050565b600080836040518082805190602001908083835b6020831015156107b0578051825260208201915060208101905060208303925061078b565b6001836020036101000a0380198251168184511680821785525050505050509050019150509081526020016040518091039020600101905060008090505b6001828054905003811015610960578273ffffffffffffffffffffffffffffffffffffffff16828281548110151561082257fe5b9060005260206000200160009054906101000a900473ffffffffffffffffffffffffffffffffffffffff1673ffffffffffffffffffffffffffffffffffffffff1614156109535781600183805490500381548110151561087e57fe5b9060005260206000200160009054906101000a900473ffffffffffffffffffffffffffffffffffffffff1682828154811015156108b757fe5b9060005260206000200160006101000a81548173ffffffffffffffffffffffffffffffffffffffff021916908373ffffffffffffffffffffffffffffffffffffffff160217905550816001820381548110151561091057fe5b9060005260206000200160006101000a81549073ffffffffffffffffffffffffffffffffffffffff0219169055818054809190600190036109519190610966565b505b80806001019150506107ee565b50505050565b81548183558181111561098d5781836000526020600020918201910161098c9190610992565b5b505050565b6109b491905b808211156109b0576000816000905550600101610998565b5090565b9056fea165627a7a72305820d558e93f521849d7e6dcdb25638695f9150f19946e6a275601613831eeca16720029",
  "source": "pragma solidity >0.4.99 <0.6.0;\n\ncontract Cache {\n      struct cache {\n            string name;\n            address[] items;\n      }\n\n      mapping (string => cache) caches;\n\n      constructor (string memory _coordinates, string memory _name) public {\n            caches[_coordinates].name = _name;\n      }\n\n      function addItem(string memory _coordinates, address _item) public {\n            caches[_coordinates].items.push(_item);\n      }\n\n      function removeItem(string memory _coordinates, address _item) public {\n            address[] storage itemArr = caches[_coordinates].items;\n            for (uint i = 0; i < itemArr.length - 1; i++) {\n                  if (itemArr[i] == _item) {\n                        itemArr[i] = itemArr[itemArr.length-1];\n                        delete itemArr[i - 1];\n                        itemArr.length--;\n                  }\n            }\n      } \n\n      function getCacheName(string memory _coordinates) public  view returns(string memory) {\n           return caches[_coordinates].name;\n      }\n\n      function getCacheItems(string memory _coordinates) public  view returns(address[] memory) {\n           return caches[_coordinates].items;\n      }\n\n}",
  "sourcePath": "/home/wayne/Desktop/blockchain/Semester2/Dapp2/geoCachingDapp/contracts/Cache.sol",
  "compiler": {
    "name": "solc",
    "version": "0.5.0+commit.1d4f565a.Emscripten.clang"
  },
  "schemaVersion": "3.0.6",
  "updatedAt": "2019-04-15T02:13:52.788Z",
  "devdoc": {
    "methods": {}
  },
  "userdoc": {
    "methods": {}
  }
}