{
  "contractName": "Cache",
  "abi": [
    {
      "constant": false,
      "inputs": [
        {
          "name": "_item",
          "type": "address"
        }
      ],
      "name": "addItem",
      "outputs": [
        {
          "name": "",
          "type": "bool"
        }
      ],
      "payable": false,
      "stateMutability": "nonpayable",
      "type": "function",
      "signature": "0x7cf90fcc"
    },
    {
      "constant": false,
      "inputs": [
        {
          "name": "_item",
          "type": "address"
        }
      ],
      "name": "removeItem",
      "outputs": [
        {
          "name": "",
          "type": "bool"
        }
      ],
      "payable": false,
      "stateMutability": "nonpayable",
      "type": "function",
      "signature": "0x399fa840"
    }
  ],
  "bytecode": "0x608060405234801561001057600080fd5b5061031e806100206000396000f3fe60806040526004361061004c576000357c0100000000000000000000000000000000000000000000000000000000900463ffffffff168063399fa840146100515780637cf90fcc146100ba575b600080fd5b34801561005d57600080fd5b506100a06004803603602081101561007457600080fd5b81019080803573ffffffffffffffffffffffffffffffffffffffff169060200190929190505050610123565b604051808215151515815260200191505060405180910390f35b3480156100c657600080fd5b50610109600480360360208110156100dd57600080fd5b81019080803573ffffffffffffffffffffffffffffffffffffffff169060200190929190505050610230565b604051808215151515815260200191505060405180910390f35b600080600360008473ffffffffffffffffffffffffffffffffffffffff1673ffffffffffffffffffffffffffffffffffffffff1681526020019081526020016000205490506001600280549050111561021057600260016002805490500381548110151561018d57fe5b9060005260206000200160009054906101000a900473ffffffffffffffffffffffffffffffffffffffff166002828154811015156101c757fe5b9060005260206000200160006101000a81548173ffffffffffffffffffffffffffffffffffffffff021916908373ffffffffffffffffffffffffffffffffffffffff1602179055505b600280548091906001900361022591906102a1565b506001915050919050565b600060028290806001815401808255809150509060018203906000526020600020016000909192909190916101000a81548173ffffffffffffffffffffffffffffffffffffffff021916908373ffffffffffffffffffffffffffffffffffffffff1602179055505060019050919050565b8154818355818111156102c8578183600052602060002091820191016102c791906102cd565b5b505050565b6102ef91905b808211156102eb5760008160009055506001016102d3565b5090565b9056fea165627a7a723058204beb0263fd8f799448f07979f88d8b3afe717c69e312193881f324ec9b1702330029",
  "source": "pragma solidity >0.4.99 <0.6.0;\n\ncontract Cache {\n      bytes32 coordinates;\n      string name;\n      address[] items;\n\n      mapping(address => uint) indexOfItem;\n\n      // constructor(bytes32 _coordinates, string memory _name) public {\n      //       coordinates = _coordinates;\n      //       name = _name;\n      // }\n\n      function addItem(address _item) public returns(bool) {\n            items.push(_item);\n            return true;\n      }\n\n      function removeItem(address _item) public returns(bool){\n            uint index = indexOfItem[_item];\n            if (items.length > 1) {\n                  items[index] = items[items.length-1];\n            }\n            items.length--; // Implicitly recovers gas from last element storag \n            return true;\n      } \n\n\n}",
  "sourcePath": "/home/matt/myproject/geoCachingDapp/contracts/Cache.sol",
  "compiler": {
    "name": "solc",
    "version": "0.5.0+commit.1d4f565a.Emscripten.clang"
  },
  "schemaVersion": "3.0.5",
  "updatedAt": "2019-04-07T04:55:47.626Z",
  "devdoc": {
    "methods": {}
  },
  "userdoc": {
    "methods": {}
  }
}