{
  "contractName": "Cache",
  "abi": [
    {
      "constant": true,
      "inputs": [],
      "name": "name",
      "outputs": [
        {
          "name": "",
          "type": "string"
        }
      ],
      "payable": false,
      "stateMutability": "view",
      "type": "function"
    },
    {
      "constant": true,
      "inputs": [],
      "name": "coordinates",
      "outputs": [
        {
          "name": "lat",
          "type": "string"
        },
        {
          "name": "lang",
          "type": "string"
        }
      ],
      "payable": false,
      "stateMutability": "view",
      "type": "function"
    },
    {
      "constant": true,
      "inputs": [
        {
          "name": "",
          "type": "uint256"
        }
      ],
      "name": "items",
      "outputs": [
        {
          "name": "",
          "type": "address"
        }
      ],
      "payable": false,
      "stateMutability": "view",
      "type": "function"
    },
    {
      "inputs": [
        {
          "name": "_lat",
          "type": "string"
        },
        {
          "name": "_lang",
          "type": "string"
        },
        {
          "name": "_name",
          "type": "string"
        }
      ],
      "payable": false,
      "stateMutability": "nonpayable",
      "type": "constructor"
    },
    {
      "constant": false,
      "inputs": [
        {
          "name": "_item",
          "type": "address"
        }
      ],
      "name": "addItem",
      "outputs": [],
      "payable": false,
      "stateMutability": "nonpayable",
      "type": "function"
    },
    {
      "constant": false,
      "inputs": [
        {
          "name": "_item",
          "type": "address"
        }
      ],
      "name": "removeItem",
      "outputs": [
        {
          "name": "",
          "type": "bool"
        }
      ],
      "payable": false,
      "stateMutability": "nonpayable",
      "type": "function"
    },
    {
      "constant": true,
      "inputs": [],
      "name": "getCacheName",
      "outputs": [
        {
          "name": "",
          "type": "string"
        }
      ],
      "payable": false,
      "stateMutability": "view",
      "type": "function"
    },
    {
      "constant": true,
      "inputs": [],
      "name": "listItems",
      "outputs": [
        {
          "name": "",
          "type": "address[]"
        }
      ],
      "payable": false,
      "stateMutability": "view",
      "type": "function"
    }
  ],
  "bytecode": "0x60806040523480156200001157600080fd5b5060405162000c8c38038062000c8c833981018060405260608110156200003757600080fd5b8101908080516401000000008111156200005057600080fd5b828101905060208101848111156200006757600080fd5b81518560018202830111640100000000821117156200008557600080fd5b50509291906020018051640100000000811115620000a257600080fd5b82810190506020810184811115620000b957600080fd5b8151856001820283011164010000000082111715620000d757600080fd5b50509291906020018051640100000000811115620000f457600080fd5b828101905060208101848111156200010b57600080fd5b81518560018202830111640100000000821117156200012957600080fd5b5050929190505050806000908051906020019062000149929190620001ab565b50604080519081016040528084815260200183815250600260008201518160000190805190602001906200017f92919062000232565b5060208201518160010190805190602001906200019e92919062000232565b50905050505050620002e1565b828054600181600116156101000203166002900490600052602060002090601f016020900481019282601f10620001ee57805160ff19168380011785556200021f565b828001600101855582156200021f579182015b828111156200021e57825182559160200191906001019062000201565b5b5090506200022e9190620002b9565b5090565b828054600181600116156101000203166002900490600052602060002090601f016020900481019282601f106200027557805160ff1916838001178555620002a6565b82800160010185558215620002a6579182015b82811115620002a557825182559160200191906001019062000288565b5b509050620002b59190620002b9565b5090565b620002de91905b80821115620002da576000816000905550600101620002c0565b5090565b90565b61099b80620002f16000396000f3fe608060405260043610610083576000357c0100000000000000000000000000000000000000000000000000000000900463ffffffff16806306fdde0314610088578063355eefc814610118578063399fa840146101845780637cf90fcc146101ed578063893d2b901461023e578063a4b889b7146102ce578063bfb231d2146103ca575b600080fd5b34801561009457600080fd5b5061009d610445565b6040518080602001828103825283818151815260200191508051906020019080838360005b838110156100dd5780820151818401526020810190506100c2565b50505050905090810190601f16801561010a5780820380516001836020036101000a031916815260200191505b509250505060405180910390f35b34801561012457600080fd5b5061012d6104e3565b6040518080602001828103825283818151815260200191508051906020019060200280838360005b83811015610170578082015181840152602081019050610155565b505050509050019250505060405180910390f35b34801561019057600080fd5b506101d3600480360360208110156101a757600080fd5b81019080803573ffffffffffffffffffffffffffffffffffffffff169060200190929190505050610589565b604051808215151515815260200191505060405180910390f35b3480156101f957600080fd5b5061023c6004803603602081101561021057600080fd5b81019080803573ffffffffffffffffffffffffffffffffffffffff169060200190929190505050610693565b005b34801561024a57600080fd5b506102536106fc565b6040518080602001828103825283818151815260200191508051906020019080838360005b83811015610293578082015181840152602081019050610278565b50505050905090810190601f1680156102c05780820380516001836020036101000a031916815260200191505b509250505060405180910390f35b3480156102da57600080fd5b506102e361079e565b604051808060200180602001838103835285818151815260200191508051906020019080838360005b8381101561032757808201518184015260208101905061030c565b50505050905090810190601f1680156103545780820380516001836020036101000a031916815260200191505b50838103825284818151815260200191508051906020019080838360005b8381101561038d578082015181840152602081019050610372565b50505050905090810190601f1680156103ba5780820380516001836020036101000a031916815260200191505b5094505050505060405180910390f35b3480156103d657600080fd5b50610403600480360360208110156103ed57600080fd5b81019080803590602001909291905050506108e0565b604051808273ffffffffffffffffffffffffffffffffffffffff1673ffffffffffffffffffffffffffffffffffffffff16815260200191505060405180910390f35b60008054600181600116156101000203166002900480601f0160208091040260200160405190810160405280929190818152602001828054600181600116156101000203166002900480156104db5780601f106104b0576101008083540402835291602001916104db565b820191906000526020600020905b8154815290600101906020018083116104be57829003601f168201915b505050505081565b60608060008090506103e88110156105835760018181548110151561050457fe5b9060005260206000200160009054906101000a900473ffffffffffffffffffffffffffffffffffffffff16828281518110151561053d57fe5b9060200190602002019073ffffffffffffffffffffffffffffffffffffffff16908173ffffffffffffffffffffffffffffffffffffffff16815250508192505050610586565b50505b90565b600080600460008473ffffffffffffffffffffffffffffffffffffffff1673ffffffffffffffffffffffffffffffffffffffff168152602001908152602001600020549050600180805490501115610673576001808080549050038154811015156105f057fe5b9060005260206000200160009054906101000a900473ffffffffffffffffffffffffffffffffffffffff1660018281548110151561062a57fe5b9060005260206000200160006101000a81548173ffffffffffffffffffffffffffffffffffffffff021916908373ffffffffffffffffffffffffffffffffffffffff1602179055505b6001805480919060019003610688919061091e565b506001915050919050565b60018190806001815401808255809150509060018203906000526020600020016000909192909190916101000a81548173ffffffffffffffffffffffffffffffffffffffff021916908373ffffffffffffffffffffffffffffffffffffffff1602179055505050565b606060008054600181600116156101000203166002900480601f0160208091040260200160405190810160405280929190818152602001828054600181600116156101000203166002900480156107945780601f1061076957610100808354040283529160200191610794565b820191906000526020600020905b81548152906001019060200180831161077757829003601f168201915b5050505050905090565b6002806000018054600181600116156101000203166002900480601f0160208091040260200160405190810160405280929190818152602001828054600181600116156101000203166002900480156108385780601f1061080d57610100808354040283529160200191610838565b820191906000526020600020905b81548152906001019060200180831161081b57829003601f168201915b505050505090806001018054600181600116156101000203166002900480601f0160208091040260200160405190810160405280929190818152602001828054600181600116156101000203166002900480156108d65780601f106108ab576101008083540402835291602001916108d6565b820191906000526020600020905b8154815290600101906020018083116108b957829003601f168201915b5050505050905082565b6001818154811015156108ef57fe5b906000526020600020016000915054906101000a900473ffffffffffffffffffffffffffffffffffffffff1681565b81548183558181111561094557818360005260206000209182019101610944919061094a565b5b505050565b61096c91905b80821115610968576000816000905550600101610950565b5090565b9056fea165627a7a7230582094fd8356a1b63e79ae7ac8c41b4a9e04bbbfd435d5982f1a1ff18a60d0a8e7620029",
  "source": "pragma solidity >0.4.99 <0.6.0;\n\ncontract Cache {\n      \n            string public name;\n            address[] public items;\n            struct _coordinates {\n                  string lat;\n                  string lang;\n            }\n            _coordinates public coordinates;\n            mapping(address => uint) indexOfItem;\n\n        \n\n      constructor (string memory _lat, string memory _lang , string memory _name) public {\n            name = _name;\n            coordinates = _coordinates(_lat, _lang);\n      }\n\n      function addItem(address _item) public {\n            items.push(_item);\n      }\n\n    //   function isItemInCache(address _item) public view returns(bool) {\n    //         if(caches[_coordinates].items.length == 0) return false;\n    //         return caches[_coordinates].items[caches[_coordinates].itemPointers[_item]] == _item;\n    //   }\n\n   function removeItem(address _item) public returns(bool){\n            uint index = indexOfItem[_item];\n            if (items.length > 1) {\n                  items[index] = items[items.length-1];\n            }\n            items.length--;\n            return true;\n      } \n\n      function getCacheName() public  view returns(string memory) {\n           return name;\n      }\n\n      function listItems() public view returns(address[] memory) {\n           address[] memory resAddr;\n            for (uint j = 0; j<1000; j++) {\n                resAddr[j] = items[j];\n            return resAddr;\n        }\n      }\n\n}",
  "sourcePath": "/home/matt/myproject/geoCachingDapp/contracts/Cache.sol",
  "compiler": {
    "name": "solc",
    "version": "0.5.0+commit.1d4f565a.Emscripten.clang"
  },
  "schemaVersion": "3.0.5",
  "updatedAt": "2019-04-24T23:39:50.557Z",
  "devdoc": {
    "methods": {}
  },
  "userdoc": {
    "methods": {}
  }
}