{
  "contractName": "GeoCacher",
  "abi": [
    {
      "constant": true,
      "inputs": [],
      "name": "owner",
      "outputs": [
        {
          "name": "",
          "type": "address"
        }
      ],
      "payable": false,
      "stateMutability": "view",
      "type": "function"
    },
    {
      "inputs": [],
      "payable": false,
      "stateMutability": "nonpayable",
      "type": "constructor"
    },
    {
      "constant": false,
      "inputs": [
        {
          "name": "code",
          "type": "bytes"
        },
        {
          "name": "salt",
          "type": "uint256"
        }
      ],
      "name": "createItem",
      "outputs": [
        {
          "name": "",
          "type": "address"
        }
      ],
      "payable": false,
      "stateMutability": "nonpayable",
      "type": "function"
    },
    {
      "constant": false,
      "inputs": [
        {
          "name": "_item",
          "type": "address"
        },
        {
          "name": "_cache",
          "type": "address"
        }
      ],
      "name": "claimOwnershipOfItem",
      "outputs": [
        {
          "name": "",
          "type": "bool"
        }
      ],
      "payable": false,
      "stateMutability": "nonpayable",
      "type": "function"
    },
    {
      "constant": true,
      "inputs": [],
      "name": "listChacherItems",
      "outputs": [
        {
          "name": "",
          "type": "address[]"
        }
      ],
      "payable": false,
      "stateMutability": "view",
      "type": "function"
    },
    {
      "constant": true,
      "inputs": [
        {
          "name": "_item",
          "type": "address"
        }
      ],
      "name": "showItemInfo",
      "outputs": [
        {
          "name": "",
          "type": "address"
        },
        {
          "name": "",
          "type": "string"
        },
        {
          "name": "",
          "type": "bool"
        },
        {
          "name": "",
          "type": "bytes32"
        }
      ],
      "payable": false,
      "stateMutability": "view",
      "type": "function"
    },
    {
      "constant": false,
      "inputs": [
        {
          "name": "_item",
          "type": "address"
        },
        {
          "name": "_cache",
          "type": "address"
        }
      ],
      "name": "placeItemInCache",
      "outputs": [
        {
          "name": "",
          "type": "bool"
        }
      ],
      "payable": false,
      "stateMutability": "nonpayable",
      "type": "function"
    },
    {
      "constant": false,
      "inputs": [
        {
          "name": "_item",
          "type": "address"
        },
        {
          "name": "_cache",
          "type": "address"
        }
      ],
      "name": "eliminateItemFromCache",
      "outputs": [
        {
          "name": "",
          "type": "bool"
        }
      ],
      "payable": false,
      "stateMutability": "nonpayable",
      "type": "function"
    }
  ],
  "bytecode": "0x608060405234801561001057600080fd5b50336000806101000a81548173ffffffffffffffffffffffffffffffffffffffff021916908373ffffffffffffffffffffffffffffffffffffffff160217905550610f63806100606000396000f3fe608060405260043610610083576000357c0100000000000000000000000000000000000000000000000000000000900463ffffffff1680631ff02d851461008857806321dde9a6146100f45780632299a31f1461017d5780635c67ffb71461028c5780636a5efdcf146103155780638da5cb5b1461039e578063f9180510146103f5575b600080fd5b34801561009457600080fd5b5061009d610507565b6040518080602001828103825283818151815260200191508051906020019060200280838360005b838110156100e05780820151818401526020810190506100c5565b505050509050019250505060405180910390f35b34801561010057600080fd5b506101636004803603604081101561011757600080fd5b81019080803573ffffffffffffffffffffffffffffffffffffffff169060200190929190803573ffffffffffffffffffffffffffffffffffffffff169060200190929190505050610681565b604051808215151515815260200191505060405180910390f35b34801561018957600080fd5b506101cc600480360360208110156101a057600080fd5b81019080803573ffffffffffffffffffffffffffffffffffffffff16906020019092919050505061093b565b604051808573ffffffffffffffffffffffffffffffffffffffff1673ffffffffffffffffffffffffffffffffffffffff1681526020018060200184151515158152602001838152602001828103825285818151815260200191508051906020019080838360005b8381101561024e578082015181840152602081019050610233565b50505050905090810190601f16801561027b5780820380516001836020036101000a031916815260200191505b509550505050505060405180910390f35b34801561029857600080fd5b506102fb600480360360408110156102af57600080fd5b81019080803573ffffffffffffffffffffffffffffffffffffffff169060200190929190803573ffffffffffffffffffffffffffffffffffffffff169060200190929190505050610949565b604051808215151515815260200191505060405180910390f35b34801561032157600080fd5b506103846004803603604081101561033857600080fd5b81019080803573ffffffffffffffffffffffffffffffffffffffff169060200190929190803573ffffffffffffffffffffffffffffffffffffffff169060200190929190505050610c03565b604051808215151515815260200191505060405180910390f35b3480156103aa57600080fd5b506103b3610e9b565b604051808273ffffffffffffffffffffffffffffffffffffffff1673ffffffffffffffffffffffffffffffffffffffff16815260200191505060405180910390f35b34801561040157600080fd5b506104c56004803603604081101561041857600080fd5b810190808035906020019064010000000081111561043557600080fd5b82018360208201111561044757600080fd5b8035906020019184600183028401116401000000008311171561046957600080fd5b91908080601f016020809104026020016040519081016040528093929190818152602001838380828437600081840152601f19601f82011690508083019250505050505050919291929080359060200190929190505050610ec0565b604051808273ffffffffffffffffffffffffffffffffffffffff1673ffffffffffffffffffffffffffffffffffffffff16815260200191505060405180910390f35b60606000809054906101000a900473ffffffffffffffffffffffffffffffffffffffff1673ffffffffffffffffffffffffffffffffffffffff163373ffffffffffffffffffffffffffffffffffffffff1614151561056457600080fd5b600080905060008090505b600180549050811015610591578180600101925050808060010191505061056f565b506060816040519080825280602002602001820160405280156105c35781602001602082028038833980820191505090505b509050600080905060008090505b600180549050811015610677576001818154811015156105ed57fe5b9060005260206000200160009054906101000a900473ffffffffffffffffffffffffffffffffffffffff16838381518110151561062657fe5b9060200190602002019073ffffffffffffffffffffffffffffffffffffffff16908173ffffffffffffffffffffffffffffffffffffffff1681525050818060010192505080806001019150506105d1565b5081935050505090565b60008060009054906101000a900473ffffffffffffffffffffffffffffffffffffffff1673ffffffffffffffffffffffffffffffffffffffff163373ffffffffffffffffffffffffffffffffffffffff161415156106de57600080fd5b8273ffffffffffffffffffffffffffffffffffffffff16635d0835356040518163ffffffff167c0100000000000000000000000000000000000000000000000000000000028152600401600060405180830381600087803b15801561074257600080fd5b505af1158015610756573d6000803e3d6000fd5b505050508173ffffffffffffffffffffffffffffffffffffffff1663399fa840846040518263ffffffff167c0100000000000000000000000000000000000000000000000000000000028152600401808273ffffffffffffffffffffffffffffffffffffffff1673ffffffffffffffffffffffffffffffffffffffff168152602001915050602060405180830381600087803b1580156107f557600080fd5b505af1158015610809573d6000803e3d6000fd5b505050506040513d602081101561081f57600080fd5b8101908080519060200190929190505050506000600260008573ffffffffffffffffffffffffffffffffffffffff1673ffffffffffffffffffffffffffffffffffffffff16815260200190815260200160002054905060018080549050111561091a5760018080805490500381548110151561089757fe5b9060005260206000200160009054906101000a900473ffffffffffffffffffffffffffffffffffffffff166001828154811015156108d157fe5b9060005260206000200160006101000a81548173ffffffffffffffffffffffffffffffffffffffff021916908373ffffffffffffffffffffffffffffffffffffffff1602179055505b600180548091906001900361092f9190610ee6565b50600191505092915050565b600060606000809193509193565b60008060009054906101000a900473ffffffffffffffffffffffffffffffffffffffff1673ffffffffffffffffffffffffffffffffffffffff163373ffffffffffffffffffffffffffffffffffffffff161415156109a657600080fd5b8273ffffffffffffffffffffffffffffffffffffffff16630360f1d56040518163ffffffff167c0100000000000000000000000000000000000000000000000000000000028152600401600060405180830381600087803b158015610a0a57600080fd5b505af1158015610a1e573d6000803e3d6000fd5b505050508173ffffffffffffffffffffffffffffffffffffffff16637cf90fcc846040518263ffffffff167c0100000000000000000000000000000000000000000000000000000000028152600401808273ffffffffffffffffffffffffffffffffffffffff1673ffffffffffffffffffffffffffffffffffffffff168152602001915050602060405180830381600087803b158015610abd57600080fd5b505af1158015610ad1573d6000803e3d6000fd5b505050506040513d6020811015610ae757600080fd5b8101908080519060200190929190505050506000600260008573ffffffffffffffffffffffffffffffffffffffff1673ffffffffffffffffffffffffffffffffffffffff168152602001908152602001600020549050600180805490501115610be257600180808054905003815481101515610b5f57fe5b9060005260206000200160009054906101000a900473ffffffffffffffffffffffffffffffffffffffff16600182815481101515610b9957fe5b9060005260206000200160006101000a81548173ffffffffffffffffffffffffffffffffffffffff021916908373ffffffffffffffffffffffffffffffffffffffff1602179055505b6001805480919060019003610bf79190610ee6565b50600191505092915050565b60008060009054906101000a900473ffffffffffffffffffffffffffffffffffffffff1673ffffffffffffffffffffffffffffffffffffffff163373ffffffffffffffffffffffffffffffffffffffff16141515610c6057600080fd5b8273ffffffffffffffffffffffffffffffffffffffff16639b958e966000809054906101000a900473ffffffffffffffffffffffffffffffffffffffff166040518263ffffffff167c0100000000000000000000000000000000000000000000000000000000028152600401808273ffffffffffffffffffffffffffffffffffffffff1673ffffffffffffffffffffffffffffffffffffffff168152602001915050602060405180830381600087803b158015610d1c57600080fd5b505af1158015610d30573d6000803e3d6000fd5b505050506040513d6020811015610d4657600080fd5b81019080805190602001909291905050505060018390806001815401808255809150509060018203906000526020600020016000909192909190916101000a81548173ffffffffffffffffffffffffffffffffffffffff021916908373ffffffffffffffffffffffffffffffffffffffff160217905550508173ffffffffffffffffffffffffffffffffffffffff1663399fa840836040518263ffffffff167c0100000000000000000000000000000000000000000000000000000000028152600401808273ffffffffffffffffffffffffffffffffffffffff1673ffffffffffffffffffffffffffffffffffffffff168152602001915050602060405180830381600087803b158015610e5957600080fd5b505af1158015610e6d573d6000803e3d6000fd5b505050506040513d6020811015610e8357600080fd5b81019080805190602001909291905050505092915050565b6000809054906101000a900473ffffffffffffffffffffffffffffffffffffffff1681565b600080828451602086016000f59050803b1515610edc57600080fd5b8091505092915050565b815481835581811115610f0d57818360005260206000209182019101610f0c9190610f12565b5b505050565b610f3491905b80821115610f30576000816000905550600101610f18565b5090565b9056fea165627a7a72305820e8e56eec668280523d0905879aeb21f12b0a729baf0723d259c44ec6fbe3de410029",
  "source": "pragma solidity >0.4.99 <0.6.0;\n\ncontract Cache {\n    function coordinates() public pure returns(bytes32 );\n    function name() public pure returns(string memory);\n    function items() public pure returns(address[] memory);\n    function addItem(address) public returns(bool);\n    function removeItem(address) public returns(bool);\n    function listItems() public returns(address);\n}\n\ncontract Item {\n\n    function name() public pure returns (string memory);\n    function itemOwner() public pure returns(address);\n    function inCache() public pure returns (bool);\n    function coordinates() public pure returns (bytes32);\n    function cacheCoordinates() public pure returns(bytes32);\n    function putItemInCache() public;\n    function removeItemFromCache() public;\n    function showItemSpecs() public returns(address, string memory, bool, bytes32);\n    function setItemOwner(address) public returns(bool);\n    function setCoordinates(bytes32) public returns(bool);\n    function setCacheCoordinates(bytes32) public returns(bool);\n    }   \n\ncontract GeoCacher  {\n\n    address public owner;\n    address[] bag;\n    mapping(address => uint) indexOfItem;\n\n    constructor() public {\n        owner = msg.sender;\n    }\n\n    modifier onlyOwner() {\n        require(msg.sender == owner);\n        _;\n    }\n\n    function createItem(bytes memory code, uint256 salt) public  returns (address){\n        address addr;\n        assembly {\n            addr := create2(0, add(code, 0x20), mload(code), salt)\n            if iszero(extcodesize(addr)) {\n                revert(0, 0)\n            }\n        }\n        return addr;\n    }\n\n    function setTheBag() private {\n        address[] memory someBag;\n    }\n    \n    function claimOwnershipOfItem(Item _item, Cache _cache) public onlyOwner returns(bool){\n       _item.setItemOwner(owner);\n        bag.push(address(_item));\n        _cache.removeItem(address(_cache));\n    }\n\n    function listChacherItems() public view  onlyOwner  returns ( address[] memory ){\n        uint counter = 0;\n        for (uint j = 0; j<bag.length; j++) {\n            counter++;\n        }\n        address[] memory b = new address[](counter);\n        uint counter2 = 0;\n        for (uint i = 0; i<bag.length; i++) {\n            b[counter2] = bag[i];\n            counter2++;\n        }\n        return b;\n    }\n\n    function showItemInfo(Item  _item) public  view returns (address, string memory, bool, bytes32){\n        _item.showItemSpecs;\n    }\n\n    function placeItemInCache(Item _item, Cache _cache) public onlyOwner returns(bool) {\n        _item.putItemInCache();\n        _cache.addItem(address(_item));\n        uint index = indexOfItem[address(_item)];\n            if (bag.length > 1) {\n                  bag[index] = bag[bag.length-1];\n            }\n            bag.length--;\n            return true;\n      } \n        \n            \n      \n    \n    \n\n    function eliminateItemFromCache(Item _item, Cache _cache) public onlyOwner returns (bool) {\n        _item.removeItemFromCache();\n        _cache.removeItem(address(_item));\n        uint index = indexOfItem[address(_item)];\n            if (bag.length > 1) {\n                  bag[index] = bag[bag.length-1];\n            }\n            bag.length--;\n        return true;\n    }\n\n}",
  "sourcePath": "/home/matt/myproject/geoCachingDapp/contracts/GeoCacher.sol",
  "compiler": {
    "name": "solc",
    "version": "0.5.0+commit.1d4f565a.Emscripten.clang"
  },
  "schemaVersion": "3.0.5",
  "updatedAt": "2019-04-09T23:53:25.694Z",
  "devdoc": {
    "methods": {}
  },
  "userdoc": {
    "methods": {}
  }
}