{
  "contractName": "GeoCacher",
  "abi": [
    {
      "constant": true,
      "inputs": [],
      "name": "owner",
      "outputs": [
        {
          "name": "",
          "type": "address"
        }
      ],
      "payable": false,
      "stateMutability": "view",
      "type": "function"
    },
    {
      "inputs": [
        {
          "name": "_it",
          "type": "address"
        }
      ],
      "payable": false,
      "stateMutability": "nonpayable",
      "type": "constructor"
    },
    {
      "constant": false,
      "inputs": [
        {
          "name": "item",
          "type": "address"
        }
      ],
      "name": "claimOwnershipOfItem",
      "outputs": [
        {
          "name": "",
          "type": "bool"
        }
      ],
      "payable": false,
      "stateMutability": "nonpayable",
      "type": "function"
    },
    {
      "constant": true,
      "inputs": [],
      "name": "getBagItems",
      "outputs": [
        {
          "name": "",
          "type": "address[]"
        }
      ],
      "payable": false,
      "stateMutability": "view",
      "type": "function"
    },
    {
      "constant": false,
      "inputs": [
        {
          "name": "item",
          "type": "address"
        }
      ],
      "name": "removeBagItem",
      "outputs": [
        {
          "name": "",
          "type": "address[]"
        }
      ],
      "payable": false,
      "stateMutability": "nonpayable",
      "type": "function"
    },
    {
      "constant": true,
      "inputs": [
        {
          "name": "item",
          "type": "address"
        }
      ],
      "name": "showItemInfo",
      "outputs": [
        {
          "name": "",
          "type": "address"
        },
        {
          "name": "",
          "type": "string"
        },
        {
          "name": "",
          "type": "bool"
        },
        {
          "name": "",
          "type": "bytes32"
        }
      ],
      "payable": false,
      "stateMutability": "view",
      "type": "function"
    },
    {
      "constant": false,
      "inputs": [
        {
          "name": "item",
          "type": "address"
        }
      ],
      "name": "placeItemInCache",
      "outputs": [],
      "payable": false,
      "stateMutability": "nonpayable",
      "type": "function"
    },
    {
      "constant": false,
      "inputs": [
        {
          "name": "item",
          "type": "address"
        }
      ],
      "name": "eliminateItemFromCache",
      "outputs": [],
      "payable": false,
      "stateMutability": "nonpayable",
      "type": "function"
    }
  ],
  "bytecode": "0x608060405234801561001057600080fd5b50604051602080610cf38339810180604052602081101561003057600080fd5b8101908080519060200190929190505050336000806101000a81548173ffffffffffffffffffffffffffffffffffffffff021916908373ffffffffffffffffffffffffffffffffffffffff16021790555080600260006101000a81548173ffffffffffffffffffffffffffffffffffffffff021916908373ffffffffffffffffffffffffffffffffffffffff16021790555050610c21806100d26000396000f3fe608060405260043610610083576000357c0100000000000000000000000000000000000000000000000000000000900463ffffffff168063101661c6146100885780632299a31f146100d95780632b8ab89d146101e85780636f6d9240146102545780638da5cb5b146102bd578063c0d9a39114610314578063da49295b146103ba575b600080fd5b34801561009457600080fd5b506100d7600480360360208110156100ab57600080fd5b81019080803573ffffffffffffffffffffffffffffffffffffffff16906020019092919050505061040b565b005b3480156100e557600080fd5b50610128600480360360208110156100fc57600080fd5b81019080803573ffffffffffffffffffffffffffffffffffffffff1690602001909291905050506104e5565b604051808573ffffffffffffffffffffffffffffffffffffffff1673ffffffffffffffffffffffffffffffffffffffff1681526020018060200184151515158152602001838152602001828103825285818151815260200191508051906020019080838360005b838110156101aa57808201518184015260208101905061018f565b50505050905090810190601f1680156101d75780820380516001836020036101000a031916815260200191505b509550505050505060405180910390f35b3480156101f457600080fd5b506101fd61064d565b6040518080602001828103825283818151815260200191508051906020019060200280838360005b83811015610240578082015181840152602081019050610225565b505050509050019250505060405180910390f35b34801561026057600080fd5b506102a36004803603602081101561027757600080fd5b81019080803573ffffffffffffffffffffffffffffffffffffffff1690602001909291905050506106db565b604051808215151515815260200191505060405180910390f35b3480156102c957600080fd5b506102d2610899565b604051808273ffffffffffffffffffffffffffffffffffffffff1673ffffffffffffffffffffffffffffffffffffffff16815260200191505060405180910390f35b34801561032057600080fd5b506103636004803603602081101561033757600080fd5b81019080803573ffffffffffffffffffffffffffffffffffffffff1690602001909291905050506108be565b6040518080602001828103825283818151815260200191508051906020019060200280838360005b838110156103a657808201518184015260208101905061038b565b505050509050019250505060405180910390f35b3480156103c657600080fd5b50610409600480360360208110156103dd57600080fd5b81019080803573ffffffffffffffffffffffffffffffffffffffff169060200190929190505050610aca565b005b6000809054906101000a900473ffffffffffffffffffffffffffffffffffffffff1673ffffffffffffffffffffffffffffffffffffffff163373ffffffffffffffffffffffffffffffffffffffff1614151561046657600080fd5b8073ffffffffffffffffffffffffffffffffffffffff1663d8ff893b6040518163ffffffff167c0100000000000000000000000000000000000000000000000000000000028152600401600060405180830381600087803b1580156104ca57600080fd5b505af11580156104de573d6000803e3d6000fd5b5050505050565b600060606000808473ffffffffffffffffffffffffffffffffffffffff1663e8aeea136040518163ffffffff167c010000000000000000000000000000000000000000000000000000000002815260040160006040518083038186803b15801561054e57600080fd5b505afa158015610562573d6000803e3d6000fd5b505050506040513d6000823e3d601f19601f82011682018060405250608081101561058c57600080fd5b810190808051906020019092919080516401000000008111156105ae57600080fd5b828101905060208101848111156105c457600080fd5b81518560018202830111640100000000821117156105e157600080fd5b505092919060200180519060200190929190805164010000000081111561060757600080fd5b8281019050602081018481111561061d57600080fd5b815185600182028301116401000000008211171561063a57600080fd5b5050929190505050505050509193509193565b606060018054806020026020016040519081016040528092919081815260200182805480156106d157602002820191906000526020600020905b8160009054906101000a900473ffffffffffffffffffffffffffffffffffffffff1673ffffffffffffffffffffffffffffffffffffffff1681526020019060010190808311610687575b5050505050905090565b60008060009054906101000a900473ffffffffffffffffffffffffffffffffffffffff1673ffffffffffffffffffffffffffffffffffffffff163373ffffffffffffffffffffffffffffffffffffffff1614151561073857600080fd5b8173ffffffffffffffffffffffffffffffffffffffff16639b958e966000809054906101000a900473ffffffffffffffffffffffffffffffffffffffff166040518263ffffffff167c0100000000000000000000000000000000000000000000000000000000028152600401808273ffffffffffffffffffffffffffffffffffffffff1673ffffffffffffffffffffffffffffffffffffffff168152602001915050600060405180830381600087803b1580156107f457600080fd5b505af1158015610808573d6000803e3d6000fd5b505050506001600260009054906101000a900473ffffffffffffffffffffffffffffffffffffffff1690806001815401808255809150509060018203906000526020600020016000909192909190916101000a81548173ffffffffffffffffffffffffffffffffffffffff021916908373ffffffffffffffffffffffffffffffffffffffff16021790555050919050565b6000809054906101000a900473ffffffffffffffffffffffffffffffffffffffff1681565b606060008090505b6001808054905003811015610a3b578273ffffffffffffffffffffffffffffffffffffffff166001828154811015156108fb57fe5b9060005260206000200160009054906101000a900473ffffffffffffffffffffffffffffffffffffffff1673ffffffffffffffffffffffffffffffffffffffff161415610a2e5760018080805490500381548110151561095757fe5b9060005260206000200160009054906101000a900473ffffffffffffffffffffffffffffffffffffffff1660018281548110151561099157fe5b9060005260206000200160006101000a81548173ffffffffffffffffffffffffffffffffffffffff021916908373ffffffffffffffffffffffffffffffffffffffff16021790555060018082038154811015156109ea57fe5b9060005260206000200160006101000a81549073ffffffffffffffffffffffffffffffffffffffff02191690556001805480919060019003610a2c9190610ba4565b505b80806001019150506108c6565b506001805480602002602001604051908101604052809291908181526020018280548015610abe57602002820191906000526020600020905b8160009054906101000a900473ffffffffffffffffffffffffffffffffffffffff1673ffffffffffffffffffffffffffffffffffffffff1681526020019060010190808311610a74575b50505050509050919050565b6000809054906101000a900473ffffffffffffffffffffffffffffffffffffffff1673ffffffffffffffffffffffffffffffffffffffff163373ffffffffffffffffffffffffffffffffffffffff16141515610b2557600080fd5b8073ffffffffffffffffffffffffffffffffffffffff16630360f1d56040518163ffffffff167c0100000000000000000000000000000000000000000000000000000000028152600401600060405180830381600087803b158015610b8957600080fd5b505af1158015610b9d573d6000803e3d6000fd5b5050505050565b815481835581811115610bcb57818360005260206000209182019101610bca9190610bd0565b5b505050565b610bf291905b80821115610bee576000816000905550600101610bd6565b5090565b9056fea165627a7a72305820801852f9f6f23a7d2086439a9edeff8dc664db6030ed9855218adf412c6c58780029",
  "source": "pragma solidity >0.4.99 <0.6.0;\nimport \"./Item.sol\";\n\ncontract GeoCacher  {\n\n    address public owner;\n    address[] bag;\n\n    Item _item;\n\n    constructor(address _it) public {\n        owner = msg.sender;\n        _item = Item(_it);\n    }\n\n    modifier onlyOwner() {\n        require(msg.sender == owner);\n        _;\n    }\n\n    function claimOwnershipOfItem(Item item) public onlyOwner returns(bool){\n        item.setItemOwner(owner);\n        bag.push(address(_item));\n    }\n\n    function getBagItems() public view returns (address[] memory) {\n        return bag;\n    }\n    \n    function removeBagItem(address item) public returns(address[] memory) {\n        for (uint i = 0; i < bag.length - 1; i++) {\n                if (bag[i] == item) {\n                    bag[i] = bag[bag.length-1];\n                    delete bag[i - 1];\n                    bag.length--;\n                }\n        }\n        return bag;\n    } \n\n    function showItemInfo(Item item) public view returns (address, string memory, bool, bytes32){\n        item.showItemSpecs();\n    }\n\n    function placeItemInCache(Item item) public onlyOwner {\n        item.putItemInCache();\n    }\n\n    function eliminateItemFromCache(Item item) public onlyOwner {\n        item.removeItemFromChache();\n    }\n\n}",
  "sourcePath": "/home/wayne/Desktop/blockchain/Semester2/Dapp2/geoCachingDapp/contracts/GeoCacher.sol",
  "compiler": {
    "name": "solc",
    "version": "0.5.0+commit.1d4f565a.Emscripten.clang"
  },
  "schemaVersion": "3.0.6",
  "updatedAt": "2019-04-13T23:55:05.631Z",
  "devdoc": {
    "methods": {}
  },
  "userdoc": {
    "methods": {}
  }
}