{
  "contractName": "GeoCacher",
  "abi": [
    {
      "constant": true,
      "inputs": [],
      "name": "owner",
      "outputs": [
        {
          "name": "",
          "type": "address"
        }
      ],
      "payable": false,
      "stateMutability": "view",
      "type": "function"
    },
    {
      "inputs": [],
      "payable": false,
      "stateMutability": "nonpayable",
      "type": "constructor"
    },
    {
      "constant": false,
      "inputs": [
        {
          "name": "code",
          "type": "bytes"
        },
        {
          "name": "salt",
          "type": "uint256"
        }
      ],
      "name": "createItem",
      "outputs": [
        {
          "name": "",
          "type": "address"
        }
      ],
      "payable": false,
      "stateMutability": "nonpayable",
      "type": "function"
    },
    {
      "constant": false,
      "inputs": [
        {
          "name": "_item",
          "type": "address"
        }
      ],
      "name": "claimOwnershipOfItem",
      "outputs": [
        {
          "name": "",
          "type": "bool"
        }
      ],
      "payable": false,
      "stateMutability": "nonpayable",
      "type": "function"
    },
    {
      "constant": true,
      "inputs": [],
      "name": "listChacherItems",
      "outputs": [
        {
          "name": "",
          "type": "address[]"
        }
      ],
      "payable": false,
      "stateMutability": "view",
      "type": "function"
    },
    {
      "constant": true,
      "inputs": [
        {
          "name": "_item",
          "type": "address"
        }
      ],
      "name": "showItemInfo",
      "outputs": [
        {
          "name": "",
          "type": "address"
        },
        {
          "name": "",
          "type": "string"
        },
        {
          "name": "",
          "type": "bool"
        },
        {
          "name": "",
          "type": "bytes32"
        }
      ],
      "payable": false,
      "stateMutability": "view",
      "type": "function"
    },
    {
      "constant": false,
      "inputs": [
        {
          "name": "_item",
          "type": "address"
        }
      ],
      "name": "placeItemInCache",
      "outputs": [
        {
          "name": "",
          "type": "bool"
        }
      ],
      "payable": false,
      "stateMutability": "nonpayable",
      "type": "function"
    },
    {
      "constant": false,
      "inputs": [
        {
          "name": "_item",
          "type": "address"
        }
      ],
      "name": "eliminateItemFromCache",
      "outputs": [
        {
          "name": "",
          "type": "bool"
        }
      ],
      "payable": false,
      "stateMutability": "nonpayable",
      "type": "function"
    }
  ],
  "bytecode": "0x608060405234801561001057600080fd5b50336000806101000a81548173ffffffffffffffffffffffffffffffffffffffff021916908373ffffffffffffffffffffffffffffffffffffffff160217905550610a2a806100606000396000f3fe608060405260043610610083576000357c0100000000000000000000000000000000000000000000000000000000900463ffffffff168063101661c6146100885780631ff02d85146100f15780632299a31f1461015d5780636f6d92401461026c5780638da5cb5b146102d5578063da49295b1461032c578063f918051014610395575b600080fd5b34801561009457600080fd5b506100d7600480360360208110156100ab57600080fd5b81019080803573ffffffffffffffffffffffffffffffffffffffff1690602001909291905050506104a7565b604051808215151515815260200191505060405180910390f35b3480156100fd57600080fd5b50610106610589565b6040518080602001828103825283818151815260200191508051906020019060200280838360005b8381101561014957808201518184015260208101905061012e565b505050509050019250505060405180910390f35b34801561016957600080fd5b506101ac6004803603602081101561018057600080fd5b81019080803573ffffffffffffffffffffffffffffffffffffffff169060200190929190505050610703565b604051808573ffffffffffffffffffffffffffffffffffffffff1673ffffffffffffffffffffffffffffffffffffffff1681526020018060200184151515158152602001838152602001828103825285818151815260200191508051906020019080838360005b8381101561022e578082015181840152602081019050610213565b50505050905090810190601f16801561025b5780820380516001836020036101000a031916815260200191505b509550505050505060405180910390f35b34801561027857600080fd5b506102bb6004803603602081101561028f57600080fd5b81019080803573ffffffffffffffffffffffffffffffffffffffff169060200190929190505050610711565b604051808215151515815260200191505060405180910390f35b3480156102e157600080fd5b506102ea6108d1565b604051808273ffffffffffffffffffffffffffffffffffffffff1673ffffffffffffffffffffffffffffffffffffffff16815260200191505060405180910390f35b34801561033857600080fd5b5061037b6004803603602081101561034f57600080fd5b81019080803573ffffffffffffffffffffffffffffffffffffffff1690602001909291905050506108f6565b604051808215151515815260200191505060405180910390f35b3480156103a157600080fd5b50610465600480360360408110156103b857600080fd5b81019080803590602001906401000000008111156103d557600080fd5b8201836020820111156103e757600080fd5b8035906020019184600183028401116401000000008311171561040957600080fd5b91908080601f016020809104026020016040519081016040528093929190818152602001838380828437600081840152601f19601f820116905080830192505050505050509192919290803590602001909291905050506109d8565b604051808273ffffffffffffffffffffffffffffffffffffffff1673ffffffffffffffffffffffffffffffffffffffff16815260200191505060405180910390f35b60008060009054906101000a900473ffffffffffffffffffffffffffffffffffffffff1673ffffffffffffffffffffffffffffffffffffffff163373ffffffffffffffffffffffffffffffffffffffff1614151561050457600080fd5b8173ffffffffffffffffffffffffffffffffffffffff1663d8ff893b6040518163ffffffff167c0100000000000000000000000000000000000000000000000000000000028152600401600060405180830381600087803b15801561056857600080fd5b505af115801561057c573d6000803e3d6000fd5b5050505060019050919050565b60606000809054906101000a900473ffffffffffffffffffffffffffffffffffffffff1673ffffffffffffffffffffffffffffffffffffffff163373ffffffffffffffffffffffffffffffffffffffff161415156105e657600080fd5b600080905060008090505b60018054905081101561061357818060010192505080806001019150506105f1565b506060816040519080825280602002602001820160405280156106455781602001602082028038833980820191505090505b509050600080905060008090505b6001805490508110156106f95760018181548110151561066f57fe5b9060005260206000200160009054906101000a900473ffffffffffffffffffffffffffffffffffffffff1683838151811015156106a857fe5b9060200190602002019073ffffffffffffffffffffffffffffffffffffffff16908173ffffffffffffffffffffffffffffffffffffffff168152505081806001019250508080600101915050610653565b5081935050505090565b600060606000809193509193565b60008060009054906101000a900473ffffffffffffffffffffffffffffffffffffffff1673ffffffffffffffffffffffffffffffffffffffff163373ffffffffffffffffffffffffffffffffffffffff1614151561076e57600080fd5b8173ffffffffffffffffffffffffffffffffffffffff16639b958e966000809054906101000a900473ffffffffffffffffffffffffffffffffffffffff166040518263ffffffff167c0100000000000000000000000000000000000000000000000000000000028152600401808273ffffffffffffffffffffffffffffffffffffffff1673ffffffffffffffffffffffffffffffffffffffff168152602001915050602060405180830381600087803b15801561082a57600080fd5b505af115801561083e573d6000803e3d6000fd5b505050506040513d602081101561085457600080fd5b81019080805190602001909291905050505060018290806001815401808255809150509060018203906000526020600020016000909192909190916101000a81548173ffffffffffffffffffffffffffffffffffffffff021916908373ffffffffffffffffffffffffffffffffffffffff16021790555050919050565b6000809054906101000a900473ffffffffffffffffffffffffffffffffffffffff1681565b60008060009054906101000a900473ffffffffffffffffffffffffffffffffffffffff1673ffffffffffffffffffffffffffffffffffffffff163373ffffffffffffffffffffffffffffffffffffffff1614151561095357600080fd5b8173ffffffffffffffffffffffffffffffffffffffff16630360f1d56040518163ffffffff167c0100000000000000000000000000000000000000000000000000000000028152600401600060405180830381600087803b1580156109b757600080fd5b505af11580156109cb573d6000803e3d6000fd5b5050505060019050919050565b600080828451602086016000f59050803b15156109f457600080fd5b809150509291505056fea165627a7a7230582091edd2ff8e4741e596e62d44fb8aa57149094c96f469f5c514f76da0f46e3d8f0029",
  "source": "pragma solidity >0.4.99 <0.6.0;\n\n// interface StateStorage { \n\n//     function getAddress(bytes32 key) external returns (address);\n//     function getAddressArray(bytes32 key) external returns (address[] memory);\n//     function getUint(bytes32 key) external returns (uint);\n//     function getBool(bytes32 key) external returns (bool);\n//     function getBytes32(bytes32 key) external returns (bytes32);\n//     function getString(bytes32 key) external returns (string memory);\n//     function setAddressArray(bytes32 key, address[] calldata value) external;\n//     function updateAddressArray(bytes32 key, address  value) external;\n//     function setAddress(bytes32 key, address value) external;\n//     function setUint(bytes32 key, uint value) external;\n//     function setBool(bytes32 key, bool value) external;\n//     function setBytes32(bytes32 key, bytes32 value) external;\n//     function setString(bytes32 key, string calldata value) external;\n// }\n\ncontract Item {\n\n    function name() public pure returns (string memory);\n    function itemOwner() public pure returns(address);\n    function inCache() public pure returns (bool);\n    function coordinates() public pure returns (bytes32);\n    function cacheCoordinates() public pure returns(bytes32);\n    function putItemInCache() public;\n    function removeItemFromChache() public;\n    function showItemSpecs() public returns(address, string memory, bool, bytes32);\n    function setItemOwner(address) public returns(bool);\n    function setCoordinates(bytes32) public returns(bool);\n    function setCacheCoordinates(bytes32) public returns(bool);\n    }   \n\ncontract GeoCacher  {\n\n    address public owner;\n    address[] bag;\n\n    constructor() public {\n        owner = msg.sender;\n    }\n\n    modifier onlyOwner() {\n        require(msg.sender == owner);\n        _;\n    }\n\n    function createItem(bytes memory code, uint256 salt) public  returns (address){\n        address addr;\n        assembly {\n            addr := create2(0, add(code, 0x20), mload(code), salt)\n            if iszero(extcodesize(addr)) {\n                revert(0, 0)\n            }\n        }\n        return addr;\n    }\n\n    function setTheBag() private {\n        address[] memory someBag;\n    }\n    \n    function claimOwnershipOfItem(Item _item) public onlyOwner returns(bool){\n       _item.setItemOwner(owner);\n        bag.push(address(_item));\n    }\n\n    function listChacherItems() public view  onlyOwner  returns ( address[] memory ){\n        uint counter = 0;\n        for (uint j = 0; j<bag.length; j++) {\n            counter++;\n        }\n        address[] memory b = new address[](counter);\n        uint counter2 = 0;\n        for (uint i = 0; i<bag.length; i++) {\n            b[counter2] = bag[i];\n            counter2++;\n        }\n        return b;\n    }\n\n    function showItemInfo(Item  _item) public  view returns (address, string memory, bool, bytes32){\n        _item.showItemSpecs;\n    }\n\n    function placeItemInCache(Item _item) public onlyOwner returns(bool) {\n        _item.putItemInCache();\n        return true;\n    }\n\n    function eliminateItemFromCache(Item _item) public onlyOwner returns (bool) {\n        _item.removeItemFromChache();\n        return true;\n    }\n\n}",
  "sourcePath": "/home/matt/myproject/geoCachingDapp/contracts/GeoCacher.sol",
  "compiler": {
    "name": "solc",
    "version": "0.5.0+commit.1d4f565a.Emscripten.clang"
  },
  "schemaVersion": "3.0.5",
  "updatedAt": "2019-04-05T17:38:58.805Z",
  "devdoc": {
    "methods": {}
  },
  "userdoc": {
    "methods": {}
  }
}