{
  "contractName": "Item",
  "abi": [
    {
      "constant": true,
      "inputs": [],
      "name": "name",
      "outputs": [
        {
          "name": "",
          "type": "string"
        }
      ],
      "payable": false,
      "stateMutability": "view",
      "type": "function"
    },
    {
      "constant": true,
      "inputs": [],
      "name": "cacheCoordinates",
      "outputs": [
        {
          "name": "",
          "type": "bytes32"
        }
      ],
      "payable": false,
      "stateMutability": "view",
      "type": "function"
    },
    {
      "constant": true,
      "inputs": [],
      "name": "inCache",
      "outputs": [
        {
          "name": "",
          "type": "bool"
        }
      ],
      "payable": false,
      "stateMutability": "view",
      "type": "function"
    },
    {
      "constant": true,
      "inputs": [],
      "name": "coordinates",
      "outputs": [
        {
          "name": "",
          "type": "bytes32"
        }
      ],
      "payable": false,
      "stateMutability": "view",
      "type": "function"
    },
    {
      "constant": true,
      "inputs": [],
      "name": "itemOwner",
      "outputs": [
        {
          "name": "",
          "type": "address"
        }
      ],
      "payable": false,
      "stateMutability": "view",
      "type": "function"
    },
    {
      "constant": false,
      "inputs": [],
      "name": "putItemInCache",
      "outputs": [],
      "payable": false,
      "stateMutability": "nonpayable",
      "type": "function"
    },
    {
      "constant": false,
      "inputs": [],
      "name": "removeItemFromChache",
      "outputs": [],
      "payable": false,
      "stateMutability": "nonpayable",
      "type": "function"
    },
    {
      "constant": true,
      "inputs": [],
      "name": "showItemSpecs",
      "outputs": [
        {
          "name": "",
          "type": "address"
        },
        {
          "name": "",
          "type": "string"
        },
        {
          "name": "",
          "type": "bool"
        },
        {
          "name": "",
          "type": "bytes32"
        }
      ],
      "payable": false,
      "stateMutability": "view",
      "type": "function"
    },
    {
      "constant": false,
      "inputs": [
        {
          "name": "_name",
          "type": "string"
        }
      ],
      "name": "setName",
      "outputs": [
        {
          "name": "",
          "type": "bool"
        }
      ],
      "payable": false,
      "stateMutability": "nonpayable",
      "type": "function"
    },
    {
      "constant": false,
      "inputs": [
        {
          "name": "_newOwner",
          "type": "address"
        }
      ],
      "name": "setItemOwner",
      "outputs": [
        {
          "name": "",
          "type": "bool"
        }
      ],
      "payable": false,
      "stateMutability": "nonpayable",
      "type": "function"
    },
    {
      "constant": false,
      "inputs": [
        {
          "name": "_coordinates",
          "type": "bytes32"
        }
      ],
      "name": "setCoordinates",
      "outputs": [
        {
          "name": "",
          "type": "bool"
        }
      ],
      "payable": false,
      "stateMutability": "nonpayable",
      "type": "function"
    },
    {
      "constant": false,
      "inputs": [
        {
          "name": "_cacheCoordinates",
          "type": "bytes32"
        }
      ],
      "name": "setCacheCoordinates",
      "outputs": [
        {
          "name": "",
          "type": "bool"
        }
      ],
      "payable": false,
      "stateMutability": "nonpayable",
      "type": "function"
    }
  ],
  "bytecode": "0x608060405234801561001057600080fd5b506108c9806100206000396000f3fe6080604052600436106100ba576000357c0100000000000000000000000000000000000000000000000000000000900463ffffffff1680630360f1d5146100bf57806306fdde03146100d65780633ab3cb4214610166578063453daeee146101b9578063564ca420146101e457806361ddffba146102375780639b958e9614610266578063a4b889b7146102cf578063b0b35fc1146102fa578063c47f002714610351578063d8ff893b14610431578063e8aeea1314610448575b600080fd5b3480156100cb57600080fd5b506100d461051d565b005b3480156100e257600080fd5b506100eb61055b565b6040518080602001828103825283818151815260200191508051906020019080838360005b8381101561012b578082015181840152602081019050610110565b50505050905090810190601f1680156101585780820380516001836020036101000a031916815260200191505b509250505060405180910390f35b34801561017257600080fd5b5061019f6004803603602081101561018957600080fd5b81019080803590602001909291905050506105f9565b604051808215151515815260200191505060405180910390f35b3480156101c557600080fd5b506101ce61060b565b6040518082815260200191505060405180910390f35b3480156101f057600080fd5b5061021d6004803603602081101561020757600080fd5b8101908080359060200190929190505050610611565b604051808215151515815260200191505060405180910390f35b34801561024357600080fd5b5061024c610623565b604051808215151515815260200191505060405180910390f35b34801561027257600080fd5b506102b56004803603602081101561028957600080fd5b81019080803573ffffffffffffffffffffffffffffffffffffffff169060200190929190505050610636565b604051808215151515815260200191505060405180910390f35b3480156102db57600080fd5b506102e4610682565b6040518082815260200191505060405180910390f35b34801561030657600080fd5b5061030f610688565b604051808273ffffffffffffffffffffffffffffffffffffffff1673ffffffffffffffffffffffffffffffffffffffff16815260200191505060405180910390f35b34801561035d57600080fd5b506104176004803603602081101561037457600080fd5b810190808035906020019064010000000081111561039157600080fd5b8201836020820111156103a357600080fd5b803590602001918460018302840111640100000000831117156103c557600080fd5b91908080601f016020809104026020016040519081016040528093929190818152602001838380828437600081840152601f19601f8201169050808301925050505050505091929192905050506106ae565b604051808215151515815260200191505060405180910390f35b34801561043d57600080fd5b506104466106d0565b005b34801561045457600080fd5b5061045d61070f565b604051808573ffffffffffffffffffffffffffffffffffffffff1673ffffffffffffffffffffffffffffffffffffffff1681526020018060200184151515158152602001838152602001828103825285818151815260200191508051906020019080838360005b838110156104df5780820151818401526020810190506104c4565b50505050905090810190601f16801561050c5780820380516001836020036101000a031916815260200191505b509550505050505060405180910390f35b60001515600160149054906101000a900460ff16151514151561053f57600080fd5b60018060146101000a81548160ff021916908315150217905550565b60008054600181600116156101000203166002900480601f0160208091040260200160405190810160405280929190818152602001828054600181600116156101000203166002900480156105f15780601f106105c6576101008083540402835291602001916105f1565b820191906000526020600020905b8154815290600101906020018083116105d457829003601f168201915b505050505081565b60008160038190555060019050919050565b60035481565b60008160028190555060019050919050565b600160149054906101000a900460ff1681565b600081600160006101000a81548173ffffffffffffffffffffffffffffffffffffffff021916908373ffffffffffffffffffffffffffffffffffffffff16021790555060019050919050565b60025481565b600160009054906101000a900473ffffffffffffffffffffffffffffffffffffffff1681565b600081600090805190602001906106c69291906107f8565b5060019050919050565b60011515600160149054906101000a900460ff1615151415156106f257600080fd5b6000600160146101000a81548160ff021916908315150217905550565b60006060600080600160009054906101000a900473ffffffffffffffffffffffffffffffffffffffff166000600160149054906101000a900460ff16600254828054600181600116156101000203166002900480601f0160208091040260200160405190810160405280929190818152602001828054600181600116156101000203166002900480156107e35780601f106107b8576101008083540402835291602001916107e3565b820191906000526020600020905b8154815290600101906020018083116107c657829003601f168201915b50505050509250935093509350935090919293565b828054600181600116156101000203166002900490600052602060002090601f016020900481019282601f1061083957805160ff1916838001178555610867565b82800160010185558215610867579182015b8281111561086657825182559160200191906001019061084b565b5b5090506108749190610878565b5090565b61089a91905b8082111561089657600081600090555060010161087e565b5090565b9056fea165627a7a72305820c65ee1da5088c239c11b354734d0c6cc934134b11f05409fa9be8ce882e2cac20029",
  "source": "pragma solidity >0.4.99 <0.6.0;\n\n// interface StateStorage { \n//     function getAddress(bytes32 key) external returns (address);\n//     function getAddressArray(bytes32 key) external returns (address[] memory);\n//     function getUint(bytes32 key) external returns (uint);\n//     function getBool(bytes32 key) external returns (bool);\n//     function getBytes32(bytes32 key) external returns (bytes32);\n//     function getString(bytes32 key) external returns (string memory);\n//     function setAddressArray(bytes32 key, address[] calldata value) external;\n//     function updateAddressArray(bytes32 key, address  value) external;\n//     function setAddress(bytes32 key, address value) external;\n//     function setUint(bytes32 key, uint value) external;\n//     function setBool(bytes32 key, bool value) external;\n//     function setBytes32(bytes32 key, bytes32 value) external;\n//     function setString(bytes32 key, string calldata value) external;\n// }\n\ncontract Item {\n\n      // StateStorage public _stateStorage;\n      string public name;\n      address public itemOwner;\n      bool public inCache;\n      bytes32  public coordinates;\n      bytes32 public cacheCoordinates;\n\n      // constructor(StateStorage stateStorage) public {\n      //       _stateStorage = stateStorage;\n      // }\n      \n      function putItemInCache() public {\n            require(inCache == false);\n            inCache = true;\n      }\n\n      function removeItemFromChache() public {     \n            require(inCache == true);\n            inCache = false;\n      }\n\n      function showItemSpecs() public  view returns(address,string memory, bool, bytes32) {\n           return (itemOwner, name, inCache, coordinates);\n      }\n\n      function setName(string memory _name) public returns(bool){\n            name = _name;\n            return true;\n      }\n\n      function setItemOwner(address _newOwner) public returns(bool) {\n            itemOwner = _newOwner;\n            return true;\n      }\n\n      function setCoordinates(bytes32 _coordinates) public returns(bool){\n            coordinates = _coordinates;\n            return true;\n      }\n\n      function setCacheCoordinates(bytes32 _cacheCoordinates) public returns(bool){\n            cacheCoordinates = _cacheCoordinates;\n            return true;\n      }    \n      \n}",
  "sourcePath": "/home/matt/myproject/geoCachingDapp/contracts/Item.sol",
  "compiler": {
    "name": "solc",
    "version": "0.5.0+commit.1d4f565a.Emscripten.clang"
  },
  "schemaVersion": "3.0.5",
  "updatedAt": "2019-04-05T19:18:37.837Z",
  "devdoc": {
    "methods": {}
  },
  "userdoc": {
    "methods": {}
  }
}