{
  "contractName": "Item",
  "abi": [
    {
      "constant": true,
      "inputs": [],
      "name": "name",
      "outputs": [
        {
          "name": "",
          "type": "string"
        }
      ],
      "payable": false,
      "stateMutability": "view",
      "type": "function"
    },
    {
      "constant": true,
      "inputs": [],
      "name": "inCache",
      "outputs": [
        {
          "name": "",
          "type": "bool"
        }
      ],
      "payable": false,
      "stateMutability": "view",
      "type": "function"
    },
    {
      "constant": true,
      "inputs": [],
      "name": "coordinates",
      "outputs": [
        {
          "name": "",
          "type": "string"
        }
      ],
      "payable": false,
      "stateMutability": "view",
      "type": "function"
    },
    {
      "constant": true,
      "inputs": [],
      "name": "itemOwner",
      "outputs": [
        {
          "name": "",
          "type": "address"
        }
      ],
      "payable": false,
      "stateMutability": "view",
      "type": "function"
    },
    {
      "inputs": [
        {
          "name": "_coordinates",
          "type": "string"
        },
        {
          "name": "_name",
          "type": "string"
        },
        {
          "name": "_itemOwner",
          "type": "address"
        },
        {
          "name": "_inCache",
          "type": "bool"
        }
      ],
      "payable": false,
      "stateMutability": "nonpayable",
      "type": "constructor"
    },
    {
      "constant": false,
      "inputs": [],
      "name": "putItemInCache",
      "outputs": [],
      "payable": false,
      "stateMutability": "nonpayable",
      "type": "function"
    },
    {
      "constant": false,
      "inputs": [],
      "name": "removeItemFromChache",
      "outputs": [],
      "payable": false,
      "stateMutability": "nonpayable",
      "type": "function"
    },
    {
      "constant": true,
      "inputs": [],
      "name": "showItemSpecs",
      "outputs": [
        {
          "name": "",
          "type": "address"
        },
        {
          "name": "",
          "type": "string"
        },
        {
          "name": "",
          "type": "bool"
        },
        {
          "name": "",
          "type": "string"
        }
      ],
      "payable": false,
      "stateMutability": "view",
      "type": "function"
    },
    {
      "constant": false,
      "inputs": [
        {
          "name": "_name",
          "type": "string"
        }
      ],
      "name": "setName",
      "outputs": [],
      "payable": false,
      "stateMutability": "nonpayable",
      "type": "function"
    },
    {
      "constant": false,
      "inputs": [
        {
          "name": "_newOwner",
          "type": "address"
        }
      ],
      "name": "setItemOwner",
      "outputs": [],
      "payable": false,
      "stateMutability": "nonpayable",
      "type": "function"
    },
    {
      "constant": false,
      "inputs": [
        {
          "name": "_coordinates",
          "type": "string"
        }
      ],
      "name": "setCoordinates",
      "outputs": [],
      "payable": false,
      "stateMutability": "nonpayable",
      "type": "function"
    }
  ],
  "bytecode": "0x608060405234801561001057600080fd5b5060405162000c8d38038062000c8d8339810180604052608081101561003557600080fd5b81019080805164010000000081111561004d57600080fd5b8281019050602081018481111561006357600080fd5b815185600182028301116401000000008211171561008057600080fd5b5050929190602001805164010000000081111561009c57600080fd5b828101905060208101848111156100b257600080fd5b81518560018202830111640100000000821117156100cf57600080fd5b505092919060200180519060200190929190805190602001909291905050508360029080519060200190610104929190610180565b50826000908051906020019061011b929190610180565b5081600160006101000a81548173ffffffffffffffffffffffffffffffffffffffff021916908373ffffffffffffffffffffffffffffffffffffffff16021790555080600160146101000a81548160ff02191690831515021790555050505050610225565b828054600181600116156101000203166002900490600052602060002090601f016020900481019282601f106101c157805160ff19168380011785556101ef565b828001600101855582156101ef579182015b828111156101ee5782518255916020019190600101906101d3565b5b5090506101fc9190610200565b5090565b61022291905b8082111561021e576000816000905550600101610206565b5090565b90565b610a5880620002356000396000f3fe6080604052600436106100a4576000357c0100000000000000000000000000000000000000000000000000000000900463ffffffff1680630360f1d5146100a957806306fdde03146100c057806361ddffba1461015057806370c6b5731461017f5780639b958e9614610247578063a4b889b714610298578063b0b35fc114610328578063c47f00271461037f578063d8ff893b14610447578063e8aeea131461045e575b600080fd5b3480156100b557600080fd5b506100be610598565b005b3480156100cc57600080fd5b506100d56105d6565b6040518080602001828103825283818151815260200191508051906020019080838360005b838110156101155780820151818401526020810190506100fa565b50505050905090810190601f1680156101425780820380516001836020036101000a031916815260200191505b509250505060405180910390f35b34801561015c57600080fd5b50610165610674565b604051808215151515815260200191505060405180910390f35b34801561018b57600080fd5b50610245600480360360208110156101a257600080fd5b81019080803590602001906401000000008111156101bf57600080fd5b8201836020820111156101d157600080fd5b803590602001918460018302840111640100000000831117156101f357600080fd5b91908080601f016020809104026020016040519081016040528093929190818152602001838380828437600081840152601f19601f820116905080830192505050505050509192919290505050610687565b005b34801561025357600080fd5b506102966004803603602081101561026a57600080fd5b81019080803573ffffffffffffffffffffffffffffffffffffffff1690602001909291905050506106a1565b005b3480156102a457600080fd5b506102ad6106e5565b6040518080602001828103825283818151815260200191508051906020019080838360005b838110156102ed5780820151818401526020810190506102d2565b50505050905090810190601f16801561031a5780820380516001836020036101000a031916815260200191505b509250505060405180910390f35b34801561033457600080fd5b5061033d610783565b604051808273ffffffffffffffffffffffffffffffffffffffff1673ffffffffffffffffffffffffffffffffffffffff16815260200191505060405180910390f35b34801561038b57600080fd5b50610445600480360360208110156103a257600080fd5b81019080803590602001906401000000008111156103bf57600080fd5b8201836020820111156103d157600080fd5b803590602001918460018302840111640100000000831117156103f357600080fd5b91908080601f016020809104026020016040519081016040528093929190818152602001838380828437600081840152601f19601f8201169050808301925050505050505091929192905050506107a9565b005b34801561045357600080fd5b5061045c6107c3565b005b34801561046a57600080fd5b50610473610802565b604051808573ffffffffffffffffffffffffffffffffffffffff1673ffffffffffffffffffffffffffffffffffffffff168152602001806020018415151515815260200180602001838103835286818151815260200191508051906020019080838360005b838110156104f35780820151818401526020810190506104d8565b50505050905090810190601f1680156105205780820380516001836020036101000a031916815260200191505b50838103825284818151815260200191508051906020019080838360005b8381101561055957808201518184015260208101905061053e565b50505050905090810190601f1680156105865780820380516001836020036101000a031916815260200191505b50965050505050505060405180910390f35b60001515600160149054906101000a900460ff1615151415156105ba57600080fd5b60018060146101000a81548160ff021916908315150217905550565b60008054600181600116156101000203166002900480601f01602080910402602001604051908101604052809291908181526020018280546001816001161561010002031660029004801561066c5780601f106106415761010080835404028352916020019161066c565b820191906000526020600020905b81548152906001019060200180831161064f57829003601f168201915b505050505081565b600160149054906101000a900460ff1681565b806002908051906020019061069d929190610987565b5050565b80600160006101000a81548173ffffffffffffffffffffffffffffffffffffffff021916908373ffffffffffffffffffffffffffffffffffffffff16021790555050565b60028054600181600116156101000203166002900480601f01602080910402602001604051908101604052809291908181526020018280546001816001161561010002031660029004801561077b5780601f106107505761010080835404028352916020019161077b565b820191906000526020600020905b81548152906001019060200180831161075e57829003601f168201915b505050505081565b600160009054906101000a900473ffffffffffffffffffffffffffffffffffffffff1681565b80600090805190602001906107bf929190610987565b5050565b60011515600160149054906101000a900460ff1615151415156107e557600080fd5b6000600160146101000a81548160ff021916908315150217905550565b6000606060006060600160009054906101000a900473ffffffffffffffffffffffffffffffffffffffff166000600160149054906101000a900460ff166002828054600181600116156101000203166002900480601f0160208091040260200160405190810160405280929190818152602001828054600181600116156101000203166002900480156108d65780601f106108ab576101008083540402835291602001916108d6565b820191906000526020600020905b8154815290600101906020018083116108b957829003601f168201915b50505050509250808054600181600116156101000203166002900480601f0160208091040260200160405190810160405280929190818152602001828054600181600116156101000203166002900480156109725780601f1061094757610100808354040283529160200191610972565b820191906000526020600020905b81548152906001019060200180831161095557829003601f168201915b50505050509050935093509350935090919293565b828054600181600116156101000203166002900490600052602060002090601f016020900481019282601f106109c857805160ff19168380011785556109f6565b828001600101855582156109f6579182015b828111156109f55782518255916020019190600101906109da565b5b509050610a039190610a07565b5090565b610a2991905b80821115610a25576000816000905550600101610a0d565b5090565b9056fea165627a7a723058207c1837b1bf902bc1f81ad0026e8e859b126fa21e320736a2112d2c6d87ef010b0029",
  "source": "pragma solidity >0.4.99 <0.6.0;\n\ncontract Item {\n\n      string public name;\n      address public itemOwner;\n      bool public inCache;\n      string  public coordinates;\n     \n      constructor(string memory _coordinates, string memory _name, address _itemOwner, bool _inCache) public {\n            coordinates = _coordinates;\n            name = _name;\n            itemOwner = _itemOwner;\n            inCache = _inCache;\n      } \n\n      function putItemInCache() public {\n            require(inCache == false);\n            inCache = true;\n      }\n\n      function removeItemFromChache() public {     \n            require(inCache == true);\n            inCache = false;\n      }\n\n      function showItemSpecs() public  view returns(address,string memory, bool, string memory) {\n           return (itemOwner, name, inCache, coordinates);\n      }\n\n      function setName(string memory _name) public {\n            name = _name;\n      }\n\n      function setItemOwner(address _newOwner) public {\n            itemOwner = _newOwner;\n      }\n\n      function setCoordinates(string  memory _coordinates) public {\n            coordinates = _coordinates;\n      }\n\n    \n}\n",
  "sourcePath": "/home/matt/myproject/geoCachingDapp/contracts/Item.sol",
  "compiler": {
    "name": "solc",
    "version": "0.5.0+commit.1d4f565a.Emscripten.clang"
  },
  "schemaVersion": "3.0.5",
  "updatedAt": "2019-04-24T20:43:07.364Z",
  "devdoc": {
    "methods": {}
  },
  "userdoc": {
    "methods": {}
  }
}