{
  "contractName": "Item",
  "abi": [
    {
      "constant": true,
      "inputs": [],
      "name": "name",
      "outputs": [
        {
          "name": "",
          "type": "string"
        }
      ],
      "payable": false,
      "stateMutability": "view",
      "type": "function"
    },
    {
      "constant": true,
      "inputs": [],
      "name": "inCache",
      "outputs": [
        {
          "name": "",
          "type": "bool"
        }
      ],
      "payable": false,
      "stateMutability": "view",
      "type": "function"
    },
    {
      "constant": true,
      "inputs": [],
      "name": "coordinates",
      "outputs": [
        {
          "name": "",
          "type": "bytes32"
        }
      ],
      "payable": false,
      "stateMutability": "view",
      "type": "function"
    },
    {
      "constant": true,
      "inputs": [],
      "name": "itemOwner",
      "outputs": [
        {
          "name": "",
          "type": "address"
        }
      ],
      "payable": false,
      "stateMutability": "view",
      "type": "function"
    },
    {
      "constant": false,
      "inputs": [],
      "name": "putItemInCache",
      "outputs": [],
      "payable": false,
      "stateMutability": "nonpayable",
      "type": "function"
    },
    {
      "constant": false,
      "inputs": [],
      "name": "removeItemFromCache",
      "outputs": [],
      "payable": false,
      "stateMutability": "nonpayable",
      "type": "function"
    },
    {
      "constant": true,
      "inputs": [],
      "name": "showItemSpecs",
      "outputs": [
        {
          "name": "",
          "type": "address"
        },
        {
          "name": "",
          "type": "string"
        },
        {
          "name": "",
          "type": "bool"
        },
        {
          "name": "",
          "type": "bytes32"
        }
      ],
      "payable": false,
      "stateMutability": "view",
      "type": "function"
    },
    {
      "constant": false,
      "inputs": [
        {
          "name": "_name",
          "type": "string"
        }
      ],
      "name": "setName",
      "outputs": [
        {
          "name": "",
          "type": "bool"
        }
      ],
      "payable": false,
      "stateMutability": "nonpayable",
      "type": "function"
    },
    {
      "constant": false,
      "inputs": [
        {
          "name": "_newOwner",
          "type": "address"
        }
      ],
      "name": "setItemOwner",
      "outputs": [
        {
          "name": "",
          "type": "bool"
        }
      ],
      "payable": false,
      "stateMutability": "nonpayable",
      "type": "function"
    },
    {
      "constant": false,
      "inputs": [
        {
          "name": "_coordinates",
          "type": "bytes32"
        }
      ],
      "name": "setCoordinates",
      "outputs": [
        {
          "name": "",
          "type": "bool"
        }
      ],
      "payable": false,
      "stateMutability": "nonpayable",
      "type": "function"
    }
  ],
  "bytecode": "0x608060405234801561001057600080fd5b5061081d806100206000396000f3fe6080604052600436106100a4576000357c0100000000000000000000000000000000000000000000000000000000900463ffffffff1680630360f1d5146100a957806306fdde03146100c0578063564ca420146101505780635d083535146101a357806361ddffba146101ba5780639b958e96146101e9578063a4b889b714610252578063b0b35fc11461027d578063c47f0027146102d4578063e8aeea13146103b4575b600080fd5b3480156100b557600080fd5b506100be610489565b005b3480156100cc57600080fd5b506100d56104c7565b6040518080602001828103825283818151815260200191508051906020019080838360005b838110156101155780820151818401526020810190506100fa565b50505050905090810190601f1680156101425780820380516001836020036101000a031916815260200191505b509250505060405180910390f35b34801561015c57600080fd5b506101896004803603602081101561017357600080fd5b8101908080359060200190929190505050610565565b604051808215151515815260200191505060405180910390f35b3480156101af57600080fd5b506101b8610577565b005b3480156101c657600080fd5b506101cf6105b6565b604051808215151515815260200191505060405180910390f35b3480156101f557600080fd5b506102386004803603602081101561020c57600080fd5b81019080803573ffffffffffffffffffffffffffffffffffffffff1690602001909291905050506105c9565b604051808215151515815260200191505060405180910390f35b34801561025e57600080fd5b50610267610615565b6040518082815260200191505060405180910390f35b34801561028957600080fd5b5061029261061b565b604051808273ffffffffffffffffffffffffffffffffffffffff1673ffffffffffffffffffffffffffffffffffffffff16815260200191505060405180910390f35b3480156102e057600080fd5b5061039a600480360360208110156102f757600080fd5b810190808035906020019064010000000081111561031457600080fd5b82018360208201111561032657600080fd5b8035906020019184600183028401116401000000008311171561034857600080fd5b91908080601f016020809104026020016040519081016040528093929190818152602001838380828437600081840152601f19601f820116905080830192505050505050509192919290505050610641565b604051808215151515815260200191505060405180910390f35b3480156103c057600080fd5b506103c9610663565b604051808573ffffffffffffffffffffffffffffffffffffffff1673ffffffffffffffffffffffffffffffffffffffff1681526020018060200184151515158152602001838152602001828103825285818151815260200191508051906020019080838360005b8381101561044b578082015181840152602081019050610430565b50505050905090810190601f1680156104785780820380516001836020036101000a031916815260200191505b509550505050505060405180910390f35b60001515600160149054906101000a900460ff1615151415156104ab57600080fd5b60018060146101000a81548160ff021916908315150217905550565b60008054600181600116156101000203166002900480601f01602080910402602001604051908101604052809291908181526020018280546001816001161561010002031660029004801561055d5780601f106105325761010080835404028352916020019161055d565b820191906000526020600020905b81548152906001019060200180831161054057829003601f168201915b505050505081565b60008160028190555060019050919050565b60011515600160149054906101000a900460ff16151514151561059957600080fd5b6000600160146101000a81548160ff021916908315150217905550565b600160149054906101000a900460ff1681565b600081600160006101000a81548173ffffffffffffffffffffffffffffffffffffffff021916908373ffffffffffffffffffffffffffffffffffffffff16021790555060019050919050565b60025481565b600160009054906101000a900473ffffffffffffffffffffffffffffffffffffffff1681565b6000816000908051906020019061065992919061074c565b5060019050919050565b60006060600080600160009054906101000a900473ffffffffffffffffffffffffffffffffffffffff166000600160149054906101000a900460ff16600254828054600181600116156101000203166002900480601f0160208091040260200160405190810160405280929190818152602001828054600181600116156101000203166002900480156107375780601f1061070c57610100808354040283529160200191610737565b820191906000526020600020905b81548152906001019060200180831161071a57829003601f168201915b50505050509250935093509350935090919293565b828054600181600116156101000203166002900490600052602060002090601f016020900481019282601f1061078d57805160ff19168380011785556107bb565b828001600101855582156107bb579182015b828111156107ba57825182559160200191906001019061079f565b5b5090506107c891906107cc565b5090565b6107ee91905b808211156107ea5760008160009055506001016107d2565b5090565b9056fea165627a7a723058205e42d0d25b241a3eeb611e0b8fe95eb324fced2cb6d1b78945c246415bdf6f420029",
  "source": "pragma solidity >0.4.99 <0.6.0;\n\n// interface StateStorage { \n//     function getAddress(bytes32 key) external returns (address);\n//     function getAddressArray(bytes32 key) external returns (address[] memory);\n//     function getUint(bytes32 key) external returns (uint);\n//     function getBool(bytes32 key) external returns (bool);\n//     function getBytes32(bytes32 key) external returns (bytes32);\n//     function getString(bytes32 key) external returns (string memory);\n//     function setAddressArray(bytes32 key, address[] calldata value) external;\n//     function updateAddressArray(bytes32 key, address  value) external;\n//     function setAddress(bytes32 key, address value) external;\n//     function setUint(bytes32 key, uint value) external;\n//     function setBool(bytes32 key, bool value) external;\n//     function setBytes32(bytes32 key, bytes32 value) external;\n//     function setString(bytes32 key, string calldata value) external;\n// }\n\ncontract Item {\n\n      // StateStorage public _stateStorage;\n      string public name;\n      address public itemOwner;\n      bool public inCache;\n      bytes32  public coordinates;\n     \n      // constructor(StateStorage stateStorage) public {\n      //       _stateStorage = stateStorage;\n      // }\n      \n      function putItemInCache() public {\n            require(inCache == false);\n            inCache = true;\n      }\n\n      function removeItemFromCache() public {     \n            require(inCache == true);\n            inCache = false;\n      }\n\n      function showItemSpecs() public  view returns(address,string memory, bool, bytes32) {\n           return (itemOwner, name, inCache, coordinates);\n      }\n\n      function setName(string memory _name) public returns(bool){\n            name = _name;\n            return true;\n      }\n\n      function setItemOwner(address _newOwner) public returns(bool) {\n            itemOwner = _newOwner;\n            return true;\n      }\n\n      function setCoordinates(bytes32 _coordinates) public returns(bool){\n            coordinates = _coordinates;\n            return true;\n      }\n\n    \n}",
  "sourcePath": "/home/matt/myproject/geoCachingDapp/contracts/Item.sol",
  "compiler": {
    "name": "solc",
    "version": "0.5.0+commit.1d4f565a.Emscripten.clang"
  },
  "schemaVersion": "3.0.5",
  "updatedAt": "2019-04-09T20:52:45.511Z",
  "devdoc": {
    "methods": {}
  },
  "userdoc": {
    "methods": {}
  }
}